{
  "transactions": [
    {
      "hash": "0x8cba74dffadb16a24538502e131e4243bd9f0b00536286110179d9e5e8ce5899",
      "transactionType": "CALL",
      "contractName": null,
      "contractAddress": "0x980c1f069ad090b18219e9411d72558a294a32cd",
      "function": "mint()",
      "arguments": [],
      "transaction": {
        "from": "0x7abedc832254daa2032505e33a8dd325841d6f2d",
        "to": "0x980c1f069ad090b18219e9411d72558a294a32cd",
        "value": "0x0",
        "input": "0x1249c58b",
        "nonce": "0x86",
        "chainId": "0x3e9"
      },
      "additionalContracts": [],
      "isFixedGasLimit": false
    },
    {
      "hash": "0x0c0bb630f4e3bbe6ea20403eb6b16edb8f85662feb2b5294d79e1f3c6b66308c",
      "transactionType": "CALL",
      "contractName": null,
      "contractAddress": "0x980c1f069ad090b18219e9411d72558a294a32cd",
      "function": "approve(address,uint256)",
      "arguments": [
        "0x4515aeC1Be9b3920febb8083b26ee41DcC5F1e71",
        "115792089237316195423570985008687907853269984665640564039457584007913129639935"
      ],
      "transaction": {
        "from": "0x7abedc832254daa2032505e33a8dd325841d6f2d",
        "to": "0x980c1f069ad090b18219e9411d72558a294a32cd",
        "value": "0x0",
        "input": "0x095ea7b30000000000000000000000004515aec1be9b3920febb8083b26ee41dcc5f1e71ffffffffffffffffffffffffffffffffffffffffffffffffffffffffffffffff",
        "nonce": "0x87",
        "chainId": "0x3e9"
      },
      "additionalContracts": [],
      "isFixedGasLimit": false
    },
    {
      "hash": "0x1692c28731104cde8b96efd65ca0aed9076adaf66ea905af5186aae876048254",
      "transactionType": "CALL",
      "contractName": null,
      "contractAddress": "0x4515aec1be9b3920febb8083b26ee41dcc5f1e71",
      "function": "createInsurance(string,string,string,uint64,uint16,uint256,uint256,uint256)",
      "arguments": [
        "KA101",
        "ICN",
        "NRT",
        "1758621030",
        "30",
        "500000000",
        "20000000",
        "5"
      ],
      "transaction": {
        "from": "0x7abedc832254daa2032505e33a8dd325841d6f2d",
        "to": "0x4515aec1be9b3920febb8083b26ee41dcc5f1e71",
        "value": "0x0",
        "input": "0x54f88ce50000000000000000000000000000000000000000000000000000000000000100000000000000000000000000000000000000000000000000000000000000014000000000000000000000000000000000000000000000000000000000000001800000000000000000000000000000000000000000000000000000000068d26d66000000000000000000000000000000000000000000000000000000000000001e000000000000000000000000000000000000000000000000000000001dcd65000000000000000000000000000000000000000000000000000000000001312d00000000000000000000000000000000000000000000000000000000000000000500000000000000000000000000000000000000000000000000000000000000054b41313031000000000000000000000000000000000000000000000000000000000000000000000000000000000000000000000000000000000000000000000349434e000000000000000000000000000000000000000000000000000000000000000000000000000000000000000000000000000000000000000000000000034e52540000000000000000000000000000000000000000000000000000000000",
        "nonce": "0x88",
        "chainId": "0x3e9"
      },
      "additionalContracts": [],
      "isFixedGasLimit": false
    },
    {
      "hash": "0x37bf71b760c839a233f7f144ce110b136ff5356227543c57e1562221e170ad97",
      "transactionType": "CALL",
      "contractName": null,
      "contractAddress": "0x4515aec1be9b3920febb8083b26ee41dcc5f1e71",
      "function": "createInsurance(string,string,string,uint64,uint16,uint256,uint256,uint256)",
      "arguments": [
        "KA202",
        "ICN",
        "HND",
        "1758793830",
        "45",
        "500000000",
        "20000000",
        "5"
      ],
      "transaction": {
        "from": "0x7abedc832254daa2032505e33a8dd325841d6f2d",
        "to": "0x4515aec1be9b3920febb8083b26ee41dcc5f1e71",
        "value": "0x0",
        "input": "0x54f88ce50000000000000000000000000000000000000000000000000000000000000100000000000000000000000000000000000000000000000000000000000000014000000000000000000000000000000000000000000000000000000000000001800000000000000000000000000000000000000000000000000000000068d51066000000000000000000000000000000000000000000000000000000000000002d000000000000000000000000000000000000000000000000000000001dcd65000000000000000000000000000000000000000000000000000000000001312d00000000000000000000000000000000000000000000000000000000000000000500000000000000000000000000000000000000000000000000000000000000054b41323032000000000000000000000000000000000000000000000000000000000000000000000000000000000000000000000000000000000000000000000349434e00000000000000000000000000000000000000000000000000000000000000000000000000000000000000000000000000000000000000000000000003484e440000000000000000000000000000000000000000000000000000000000",
        "nonce": "0x89",
        "chainId": "0x3e9"
      },
      "additionalContracts": [],
      "isFixedGasLimit": false
    },
    {
      "hash": "0x008a7425746b453d9f85c316e6b21ab9efd90d96c4859c4da72d2a3609efc516",
      "transactionType": "CALL",
      "contractName": null,
      "contractAddress": "0x4515aec1be9b3920febb8083b26ee41dcc5f1e71",
      "function": "createInsurance(string,string,string,uint64,uint16,uint256,uint256,uint256)",
      "arguments": [
        "KA303",
        "GMP",
        "KIX",
        "1759053030",
        "60",
        "500000000",
        "20000000",
        "5"
      ],
      "transaction": {
        "from": "0x7abedc832254daa2032505e33a8dd325841d6f2d",
        "to": "0x4515aec1be9b3920febb8083b26ee41dcc5f1e71",
        "value": "0x0",
        "input": "0x54f88ce50000000000000000000000000000000000000000000000000000000000000100000000000000000000000000000000000000000000000000000000000000014000000000000000000000000000000000000000000000000000000000000001800000000000000000000000000000000000000000000000000000000068d904e6000000000000000000000000000000000000000000000000000000000000003c000000000000000000000000000000000000000000000000000000001dcd65000000000000000000000000000000000000000000000000000000000001312d00000000000000000000000000000000000000000000000000000000000000000500000000000000000000000000000000000000000000000000000000000000054b413330330000000000000000000000000000000000000000000000000000000000000000000000000000000000000000000000000000000000000000000003474d50000000000000000000000000000000000000000000000000000000000000000000000000000000000000000000000000000000000000000000000000034b49580000000000000000000000000000000000000000000000000000000000",
        "nonce": "0x8a",
        "chainId": "0x3e9"
      },
      "additionalContracts": [],
      "isFixedGasLimit": false
    },
    {
      "hash": "0xa566f4535289850ca78753a62fd85d90263bb79479411da6b84c6c8a71357149",
      "transactionType": "CALL",
      "contractName": null,
      "contractAddress": "0x4515aec1be9b3920febb8083b26ee41dcc5f1e71",
      "function": "createInsurance(string,string,string,uint64,uint16,uint256,uint256,uint256)",
      "arguments": [
        "KA404",
        "ICN",
        "LAX",
        "1759312230",
        "90",
        "500000000",
        "20000000",
        "5"
      ],
      "transaction": {
        "from": "0x7abedc832254daa2032505e33a8dd325841d6f2d",
        "to": "0x4515aec1be9b3920febb8083b26ee41dcc5f1e71",
        "value": "0x0",
        "input": "0x54f88ce50000000000000000000000000000000000000000000000000000000000000100000000000000000000000000000000000000000000000000000000000000014000000000000000000000000000000000000000000000000000000000000001800000000000000000000000000000000000000000000000000000000068dcf966000000000000000000000000000000000000000000000000000000000000005a000000000000000000000000000000000000000000000000000000001dcd65000000000000000000000000000000000000000000000000000000000001312d00000000000000000000000000000000000000000000000000000000000000000500000000000000000000000000000000000000000000000000000000000000054b41343034000000000000000000000000000000000000000000000000000000000000000000000000000000000000000000000000000000000000000000000349434e000000000000000000000000000000000000000000000000000000000000000000000000000000000000000000000000000000000000000000000000034c41580000000000000000000000000000000000000000000000000000000000",
        "nonce": "0x8b",
        "chainId": "0x3e9"
      },
      "additionalContracts": [],
      "isFixedGasLimit": false
    },
    {
      "hash": "0x6dc4ea4019da83c7e16eef95967b808bd39d18cf8793857b0b969fbaf0a40792",
      "transactionType": "CALL",
      "contractName": null,
      "contractAddress": "0x4515aec1be9b3920febb8083b26ee41dcc5f1e71",
      "function": "createInsurance(string,string,string,uint64,uint16,uint256,uint256,uint256)",
      "arguments": [
        "KA505",
        "ICN",
        "SFO",
        "1759657830",
        "60",
        "500000000",
        "20000000",
        "5"
      ],
      "transaction": {
        "from": "0x7abedc832254daa2032505e33a8dd325841d6f2d",
        "to": "0x4515aec1be9b3920febb8083b26ee41dcc5f1e71",
        "value": "0x0",
        "input": "0x54f88ce50000000000000000000000000000000000000000000000000000000000000100000000000000000000000000000000000000000000000000000000000000014000000000000000000000000000000000000000000000000000000000000001800000000000000000000000000000000000000000000000000000000068e23f66000000000000000000000000000000000000000000000000000000000000003c000000000000000000000000000000000000000000000000000000001dcd65000000000000000000000000000000000000000000000000000000000001312d00000000000000000000000000000000000000000000000000000000000000000500000000000000000000000000000000000000000000000000000000000000054b41353035000000000000000000000000000000000000000000000000000000000000000000000000000000000000000000000000000000000000000000000349434e0000000000000000000000000000000000000000000000000000000000000000000000000000000000000000000000000000000000000000000000000353464f0000000000000000000000000000000000000000000000000000000000",
        "nonce": "0x8c",
        "chainId": "0x3e9"
      },
      "additionalContracts": [],
      "isFixedGasLimit": false
    },
    {
      "hash": "0x7a073068f5c12d68712d7343fbc8e6b00d5a3677441cf7b0f2c5f034e6db6328",
      "transactionType": "CALL",
      "contractName": null,
      "contractAddress": "0x4515aec1be9b3920febb8083b26ee41dcc5f1e71",
      "function": "createInsurance(string,string,string,uint64,uint16,uint256,uint256,uint256)",
      "arguments": [
        "KA606",
        "ICN",
        "SIN",
        "1760003430",
        "45",
        "500000000",
        "20000000",
        "5"
      ],
      "transaction": {
        "from": "0x7abedc832254daa2032505e33a8dd325841d6f2d",
        "to": "0x4515aec1be9b3920febb8083b26ee41dcc5f1e71",
        "value": "0x0",
        "input": "0x54f88ce50000000000000000000000000000000000000000000000000000000000000100000000000000000000000000000000000000000000000000000000000000014000000000000000000000000000000000000000000000000000000000000001800000000000000000000000000000000000000000000000000000000068e78566000000000000000000000000000000000000000000000000000000000000002d000000000000000000000000000000000000000000000000000000001dcd65000000000000000000000000000000000000000000000000000000000001312d00000000000000000000000000000000000000000000000000000000000000000500000000000000000000000000000000000000000000000000000000000000054b41363036000000000000000000000000000000000000000000000000000000000000000000000000000000000000000000000000000000000000000000000349434e0000000000000000000000000000000000000000000000000000000000000000000000000000000000000000000000000000000000000000000000000353494e0000000000000000000000000000000000000000000000000000000000",
        "nonce": "0x8d",
        "chainId": "0x3e9"
      },
      "additionalContracts": [],
      "isFixedGasLimit": false
    },
    {
      "hash": "0x4e3392b8bf3299feb50f933325e84b83005014e606191e7c1df3ee72c813824e",
      "transactionType": "CALL",
      "contractName": null,
      "contractAddress": "0x4515aec1be9b3920febb8083b26ee41dcc5f1e71",
      "function": "createInsurance(string,string,string,uint64,uint16,uint256,uint256,uint256)",
      "arguments": [
        "KA707",
        "ICN",
        "BKK",
        "1760349030",
        "30",
        "500000000",
        "20000000",
        "5"
      ],
      "transaction": {
        "from": "0x7abedc832254daa2032505e33a8dd325841d6f2d",
        "to": "0x4515aec1be9b3920febb8083b26ee41dcc5f1e71",
        "value": "0x0",
        "input": "0x54f88ce50000000000000000000000000000000000000000000000000000000000000100000000000000000000000000000000000000000000000000000000000000014000000000000000000000000000000000000000000000000000000000000001800000000000000000000000000000000000000000000000000000000068eccb66000000000000000000000000000000000000000000000000000000000000001e000000000000000000000000000000000000000000000000000000001dcd65000000000000000000000000000000000000000000000000000000000001312d00000000000000000000000000000000000000000000000000000000000000000500000000000000000000000000000000000000000000000000000000000000054b41373037000000000000000000000000000000000000000000000000000000000000000000000000000000000000000000000000000000000000000000000349434e00000000000000000000000000000000000000000000000000000000000000000000000000000000000000000000000000000000000000000000000003424b4b0000000000000000000000000000000000000000000000000000000000",
        "nonce": "0x8e",
        "chainId": "0x3e9"
      },
      "additionalContracts": [],
      "isFixedGasLimit": false
    },
    {
      "hash": "0xdb9155d609b0a7f296efa1b2d7d3240adc37186c9ea88ca3fa3bbbcc9aeb7a61",
      "transactionType": "CALL",
      "contractName": null,
      "contractAddress": "0x4515aec1be9b3920febb8083b26ee41dcc5f1e71",
      "function": "createInsurance(string,string,string,uint64,uint16,uint256,uint256,uint256)",
      "arguments": [
        "KA808",
        "ICN",
        "HKG",
        "1760694630",
        "45",
        "500000000",
        "20000000",
        "5"
      ],
      "transaction": {
        "from": "0x7abedc832254daa2032505e33a8dd325841d6f2d",
        "to": "0x4515aec1be9b3920febb8083b26ee41dcc5f1e71",
        "value": "0x0",
        "input": "0x54f88ce50000000000000000000000000000000000000000000000000000000000000100000000000000000000000000000000000000000000000000000000000000014000000000000000000000000000000000000000000000000000000000000001800000000000000000000000000000000000000000000000000000000068f21166000000000000000000000000000000000000000000000000000000000000002d000000000000000000000000000000000000000000000000000000001dcd65000000000000000000000000000000000000000000000000000000000001312d00000000000000000000000000000000000000000000000000000000000000000500000000000000000000000000000000000000000000000000000000000000054b41383038000000000000000000000000000000000000000000000000000000000000000000000000000000000000000000000000000000000000000000000349434e00000000000000000000000000000000000000000000000000000000000000000000000000000000000000000000000000000000000000000000000003484b470000000000000000000000000000000000000000000000000000000000",
        "nonce": "0x8f",
        "chainId": "0x3e9"
      },
      "additionalContracts": [],
      "isFixedGasLimit": false
    },
    {
      "hash": "0xc7bcb0fbe55e9da89be2da60224442ee2e02f81c6ef62fc3b3e868070a511739",
      "transactionType": "CALL",
      "contractName": null,
      "contractAddress": "0x4515aec1be9b3920febb8083b26ee41dcc5f1e71",
      "function": "createInsurance(string,string,string,uint64,uint16,uint256,uint256,uint256)",
      "arguments": [
        "KA909",
        "PUS",
        "NRT",
        "1761040230",
        "60",
        "500000000",
        "20000000",
        "5"
      ],
      "transaction": {
        "from": "0x7abedc832254daa2032505e33a8dd325841d6f2d",
        "to": "0x4515aec1be9b3920febb8083b26ee41dcc5f1e71",
        "value": "0x0",
        "input": "0x54f88ce50000000000000000000000000000000000000000000000000000000000000100000000000000000000000000000000000000000000000000000000000000014000000000000000000000000000000000000000000000000000000000000001800000000000000000000000000000000000000000000000000000000068f75766000000000000000000000000000000000000000000000000000000000000003c000000000000000000000000000000000000000000000000000000001dcd65000000000000000000000000000000000000000000000000000000000001312d00000000000000000000000000000000000000000000000000000000000000000500000000000000000000000000000000000000000000000000000000000000054b413930390000000000000000000000000000000000000000000000000000000000000000000000000000000000000000000000000000000000000000000003505553000000000000000000000000000000000000000000000000000000000000000000000000000000000000000000000000000000000000000000000000034e52540000000000000000000000000000000000000000000000000000000000",
        "nonce": "0x90",
        "chainId": "0x3e9"
      },
      "additionalContracts": [],
      "isFixedGasLimit": false
    },
    {
      "hash": "0x0222a7a70f53bf6baa4d8f9705eb3863dfd1699cc783ac82ca2dc9663dc20dcd",
      "transactionType": "CALL",
      "contractName": null,
      "contractAddress": "0x4515aec1be9b3920febb8083b26ee41dcc5f1e71",
      "function": "createInsurance(string,string,string,uint64,uint16,uint256,uint256,uint256)",
      "arguments": [
        "KA110",
        "ICN",
        "CDG",
        "1761385830",
        "90",
        "500000000",
        "20000000",
        "5"
      ],
      "transaction": {
        "from": "0x7abedc832254daa2032505e33a8dd325841d6f2d",
        "to": "0x4515aec1be9b3920febb8083b26ee41dcc5f1e71",
        "value": "0x0",
        "input": "0x54f88ce50000000000000000000000000000000000000000000000000000000000000100000000000000000000000000000000000000000000000000000000000000014000000000000000000000000000000000000000000000000000000000000001800000000000000000000000000000000000000000000000000000000068fc9d66000000000000000000000000000000000000000000000000000000000000005a000000000000000000000000000000000000000000000000000000001dcd65000000000000000000000000000000000000000000000000000000000001312d00000000000000000000000000000000000000000000000000000000000000000500000000000000000000000000000000000000000000000000000000000000054b41313130000000000000000000000000000000000000000000000000000000000000000000000000000000000000000000000000000000000000000000000349434e000000000000000000000000000000000000000000000000000000000000000000000000000000000000000000000000000000000000000000000000034344470000000000000000000000000000000000000000000000000000000000",
        "nonce": "0x91",
        "chainId": "0x3e9"
      },
      "additionalContracts": [],
      "isFixedGasLimit": false
    },
    {
      "hash": "0x2664226c3afefa71898da34c6703630b290fd69f974473668e81cc4658966e92",
      "transactionType": "CALL",
      "contractName": null,
      "contractAddress": "0x4515aec1be9b3920febb8083b26ee41dcc5f1e71",
      "function": "createInsurance(string,string,string,uint64,uint16,uint256,uint256,uint256)",
      "arguments": [
        "KA111",
        "ICN",
        "FRA",
        "1761731430",
        "60",
        "500000000",
        "20000000",
        "5"
      ],
      "transaction": {
        "from": "0x7abedc832254daa2032505e33a8dd325841d6f2d",
        "to": "0x4515aec1be9b3920febb8083b26ee41dcc5f1e71",
        "value": "0x0",
        "input": "0x54f88ce5000000000000000000000000000000000000000000000000000000000000010000000000000000000000000000000000000000000000000000000000000001400000000000000000000000000000000000000000000000000000000000000180000000000000000000000000000000000000000000000000000000006901e366000000000000000000000000000000000000000000000000000000000000003c000000000000000000000000000000000000000000000000000000001dcd65000000000000000000000000000000000000000000000000000000000001312d00000000000000000000000000000000000000000000000000000000000000000500000000000000000000000000000000000000000000000000000000000000054b41313131000000000000000000000000000000000000000000000000000000000000000000000000000000000000000000000000000000000000000000000349434e000000000000000000000000000000000000000000000000000000000000000000000000000000000000000000000000000000000000000000000000034652410000000000000000000000000000000000000000000000000000000000",
        "nonce": "0x92",
        "chainId": "0x3e9"
      },
      "additionalContracts": [],
      "isFixedGasLimit": false
    },
    {
      "hash": "0xcea81c570ef780fbfdab0e896c4e38828cc0c7fbd56106ab6b638cce3604fae0",
      "transactionType": "CALL",
      "contractName": null,
      "contractAddress": "0x4515aec1be9b3920febb8083b26ee41dcc5f1e71",
      "function": "createInsurance(string,string,string,uint64,uint16,uint256,uint256,uint256)",
      "arguments": [
        "KA112",
        "ICN",
        "LHR",
        "1762077030",
        "90",
        "500000000",
        "20000000",
        "5"
      ],
      "transaction": {
        "from": "0x7abedc832254daa2032505e33a8dd325841d6f2d",
        "to": "0x4515aec1be9b3920febb8083b26ee41dcc5f1e71",
        "value": "0x0",
        "input": "0x54f88ce50000000000000000000000000000000000000000000000000000000000000100000000000000000000000000000000000000000000000000000000000000014000000000000000000000000000000000000000000000000000000000000001800000000000000000000000000000000000000000000000000000000069072966000000000000000000000000000000000000000000000000000000000000005a000000000000000000000000000000000000000000000000000000001dcd65000000000000000000000000000000000000000000000000000000000001312d00000000000000000000000000000000000000000000000000000000000000000500000000000000000000000000000000000000000000000000000000000000054b41313132000000000000000000000000000000000000000000000000000000000000000000000000000000000000000000000000000000000000000000000349434e000000000000000000000000000000000000000000000000000000000000000000000000000000000000000000000000000000000000000000000000034c48520000000000000000000000000000000000000000000000000000000000",
        "nonce": "0x93",
        "chainId": "0x3e9"
      },
      "additionalContracts": [],
      "isFixedGasLimit": false
    },
    {
      "hash": "0x89dad7358665c538ef0df5d3c27bf52886955e26dae8434e347bb79e62da291a",
      "transactionType": "CALL",
      "contractName": null,
      "contractAddress": "0x4515aec1be9b3920febb8083b26ee41dcc5f1e71",
      "function": "createInsurance(string,string,string,uint64,uint16,uint256,uint256,uint256)",
      "arguments": [
        "KA113",
        "ICN",
        "SYD",
        "1762422630",
        "45",
        "500000000",
        "20000000",
        "5"
      ],
      "transaction": {
        "from": "0x7abedc832254daa2032505e33a8dd325841d6f2d",
        "to": "0x4515aec1be9b3920febb8083b26ee41dcc5f1e71",
        "value": "0x0",
        "input": "0x54f88ce500000000000000000000000000000000000000000000000000000000000001000000000000000000000000000000000000000000000000000000000000000140000000000000000000000000000000000000000000000000000000000000018000000000000000000000000000000000000000000000000000000000690c6f66000000000000000000000000000000000000000000000000000000000000002d000000000000000000000000000000000000000000000000000000001dcd65000000000000000000000000000000000000000000000000000000000001312d00000000000000000000000000000000000000000000000000000000000000000500000000000000000000000000000000000000000000000000000000000000054b41313133000000000000000000000000000000000000000000000000000000000000000000000000000000000000000000000000000000000000000000000349434e000000000000000000000000000000000000000000000000000000000000000000000000000000000000000000000000000000000000000000000000035359440000000000000000000000000000000000000000000000000000000000",
        "nonce": "0x94",
        "chainId": "0x3e9"
      },
      "additionalContracts": [],
      "isFixedGasLimit": false
    },
    {
      "hash": "0x0b2965656312e1a6e6b40ffc99d98537fd91327494512918ce733120f8217ef9",
      "transactionType": "CALL",
      "contractName": null,
      "contractAddress": "0x4515aec1be9b3920febb8083b26ee41dcc5f1e71",
      "function": "createInsurance(string,string,string,uint64,uint16,uint256,uint256,uint256)",
      "arguments": [
        "KA114",
        "ICN",
        "MEL",
        "1762768230",
        "60",
        "500000000",
        "20000000",
        "5"
      ],
      "transaction": {
        "from": "0x7abedc832254daa2032505e33a8dd325841d6f2d",
        "to": "0x4515aec1be9b3920febb8083b26ee41dcc5f1e71",
        "value": "0x0",
        "input": "0x54f88ce5000000000000000000000000000000000000000000000000000000000000010000000000000000000000000000000000000000000000000000000000000001400000000000000000000000000000000000000000000000000000000000000180000000000000000000000000000000000000000000000000000000006911b566000000000000000000000000000000000000000000000000000000000000003c000000000000000000000000000000000000000000000000000000001dcd65000000000000000000000000000000000000000000000000000000000001312d00000000000000000000000000000000000000000000000000000000000000000500000000000000000000000000000000000000000000000000000000000000054b41313134000000000000000000000000000000000000000000000000000000000000000000000000000000000000000000000000000000000000000000000349434e000000000000000000000000000000000000000000000000000000000000000000000000000000000000000000000000000000000000000000000000034d454c0000000000000000000000000000000000000000000000000000000000",
        "nonce": "0x95",
        "chainId": "0x3e9"
      },
      "additionalContracts": [],
      "isFixedGasLimit": false
    },
    {
      "hash": "0x6147f2bb3e06f71bbfa773f87969fcf567d1dbbe7ae0a46dce3c426e6043e017",
      "transactionType": "CALL",
      "contractName": null,
      "contractAddress": "0x4515aec1be9b3920febb8083b26ee41dcc5f1e71",
      "function": "createInsurance(string,string,string,uint64,uint16,uint256,uint256,uint256)",
      "arguments": [
        "KA115",
        "ICN",
        "DXB",
        "1763113830",
        "45",
        "500000000",
        "20000000",
        "5"
      ],
      "transaction": {
        "from": "0x7abedc832254daa2032505e33a8dd325841d6f2d",
        "to": "0x4515aec1be9b3920febb8083b26ee41dcc5f1e71",
        "value": "0x0",
        "input": "0x54f88ce5000000000000000000000000000000000000000000000000000000000000010000000000000000000000000000000000000000000000000000000000000001400000000000000000000000000000000000000000000000000000000000000180000000000000000000000000000000000000000000000000000000006916fb66000000000000000000000000000000000000000000000000000000000000002d000000000000000000000000000000000000000000000000000000001dcd65000000000000000000000000000000000000000000000000000000000001312d00000000000000000000000000000000000000000000000000000000000000000500000000000000000000000000000000000000000000000000000000000000054b41313135000000000000000000000000000000000000000000000000000000000000000000000000000000000000000000000000000000000000000000000349434e000000000000000000000000000000000000000000000000000000000000000000000000000000000000000000000000000000000000000000000000034458420000000000000000000000000000000000000000000000000000000000",
        "nonce": "0x96",
        "chainId": "0x3e9"
      },
      "additionalContracts": [],
      "isFixedGasLimit": false
    },
    {
      "hash": "0x737b4493fb03f53573e2df8fba86d2c0cbf40c86d3ede6c96c1bcf4cc49c12e4",
      "transactionType": "CALL",
      "contractName": null,
      "contractAddress": "0x4515aec1be9b3920febb8083b26ee41dcc5f1e71",
      "function": "createInsurance(string,string,string,uint64,uint16,uint256,uint256,uint256)",
      "arguments": [
        "KA116",
        "ICN",
        "DOH",
        "1763459430",
        "30",
        "500000000",
        "20000000",
        "5"
      ],
      "transaction": {
        "from": "0x7abedc832254daa2032505e33a8dd325841d6f2d",
        "to": "0x4515aec1be9b3920febb8083b26ee41dcc5f1e71",
        "value": "0x0",
        "input": "0x54f88ce500000000000000000000000000000000000000000000000000000000000001000000000000000000000000000000000000000000000000000000000000000140000000000000000000000000000000000000000000000000000000000000018000000000000000000000000000000000000000000000000000000000691c4166000000000000000000000000000000000000000000000000000000000000001e000000000000000000000000000000000000000000000000000000001dcd65000000000000000000000000000000000000000000000000000000000001312d00000000000000000000000000000000000000000000000000000000000000000500000000000000000000000000000000000000000000000000000000000000054b41313136000000000000000000000000000000000000000000000000000000000000000000000000000000000000000000000000000000000000000000000349434e00000000000000000000000000000000000000000000000000000000000000000000000000000000000000000000000000000000000000000000000003444f480000000000000000000000000000000000000000000000000000000000",
        "nonce": "0x97",
        "chainId": "0x3e9"
      },
      "additionalContracts": [],
      "isFixedGasLimit": false
    },
    {
      "hash": "0x8c3e1a298051f33c557ab8cfc44b358ee3573c6b55b327daea9510c325a9add3",
      "transactionType": "CALL",
      "contractName": null,
      "contractAddress": "0x4515aec1be9b3920febb8083b26ee41dcc5f1e71",
      "function": "createInsurance(string,string,string,uint64,uint16,uint256,uint256,uint256)",
      "arguments": [
        "KA117",
        "ICN",
        "JFK",
        "1763805030",
        "90",
        "500000000",
        "20000000",
        "5"
      ],
      "transaction": {
        "from": "0x7abedc832254daa2032505e33a8dd325841d6f2d",
        "to": "0x4515aec1be9b3920febb8083b26ee41dcc5f1e71",
        "value": "0x0",
        "input": "0x54f88ce50000000000000000000000000000000000000000000000000000000000000100000000000000000000000000000000000000000000000000000000000000014000000000000000000000000000000000000000000000000000000000000001800000000000000000000000000000000000000000000000000000000069218766000000000000000000000000000000000000000000000000000000000000005a000000000000000000000000000000000000000000000000000000001dcd65000000000000000000000000000000000000000000000000000000000001312d00000000000000000000000000000000000000000000000000000000000000000500000000000000000000000000000000000000000000000000000000000000054b41313137000000000000000000000000000000000000000000000000000000000000000000000000000000000000000000000000000000000000000000000349434e000000000000000000000000000000000000000000000000000000000000000000000000000000000000000000000000000000000000000000000000034a464b0000000000000000000000000000000000000000000000000000000000",
        "nonce": "0x98",
        "chainId": "0x3e9"
      },
      "additionalContracts": [],
      "isFixedGasLimit": false
    },
    {
      "hash": "0x4df03f6920acce8fec05bdd8c6a69368dd52d96f0ee08d5506c5a2caf81167c9",
      "transactionType": "CALL",
      "contractName": null,
      "contractAddress": "0x4515aec1be9b3920febb8083b26ee41dcc5f1e71",
      "function": "createInsurance(string,string,string,uint64,uint16,uint256,uint256,uint256)",
      "arguments": [
        "KA118",
        "ICN",
        "SEA",
        "1764150630",
        "60",
        "500000000",
        "20000000",
        "5"
      ],
      "transaction": {
        "from": "0x7abedc832254daa2032505e33a8dd325841d6f2d",
        "to": "0x4515aec1be9b3920febb8083b26ee41dcc5f1e71",
        "value": "0x0",
        "input": "0x54f88ce5000000000000000000000000000000000000000000000000000000000000010000000000000000000000000000000000000000000000000000000000000001400000000000000000000000000000000000000000000000000000000000000180000000000000000000000000000000000000000000000000000000006926cd66000000000000000000000000000000000000000000000000000000000000003c000000000000000000000000000000000000000000000000000000001dcd65000000000000000000000000000000000000000000000000000000000001312d00000000000000000000000000000000000000000000000000000000000000000500000000000000000000000000000000000000000000000000000000000000054b41313138000000000000000000000000000000000000000000000000000000000000000000000000000000000000000000000000000000000000000000000349434e000000000000000000000000000000000000000000000000000000000000000000000000000000000000000000000000000000000000000000000000035345410000000000000000000000000000000000000000000000000000000000",
        "nonce": "0x99",
        "chainId": "0x3e9"
      },
      "additionalContracts": [],
      "isFixedGasLimit": false
    },
    {
      "hash": "0x74b0d8d24de2da0179d72a2091a0bcda8faa0925a4a36b8d0acaf3a01575a1a6",
      "transactionType": "CALL",
      "contractName": null,
      "contractAddress": "0x4515aec1be9b3920febb8083b26ee41dcc5f1e71",
      "function": "createInsurance(string,string,string,uint64,uint16,uint256,uint256,uint256)",
      "arguments": [
        "KA119",
        "ICN",
        "YVR",
        "1764496230",
        "45",
        "500000000",
        "20000000",
        "5"
      ],
      "transaction": {
        "from": "0x7abedc832254daa2032505e33a8dd325841d6f2d",
        "to": "0x4515aec1be9b3920febb8083b26ee41dcc5f1e71",
        "value": "0x0",
        "input": "0x54f88ce500000000000000000000000000000000000000000000000000000000000001000000000000000000000000000000000000000000000000000000000000000140000000000000000000000000000000000000000000000000000000000000018000000000000000000000000000000000000000000000000000000000692c1366000000000000000000000000000000000000000000000000000000000000002d000000000000000000000000000000000000000000000000000000001dcd65000000000000000000000000000000000000000000000000000000000001312d00000000000000000000000000000000000000000000000000000000000000000500000000000000000000000000000000000000000000000000000000000000054b41313139000000000000000000000000000000000000000000000000000000000000000000000000000000000000000000000000000000000000000000000349434e000000000000000000000000000000000000000000000000000000000000000000000000000000000000000000000000000000000000000000000000035956520000000000000000000000000000000000000000000000000000000000",
        "nonce": "0x9a",
        "chainId": "0x3e9"
      },
      "additionalContracts": [],
      "isFixedGasLimit": false
    },
    {
      "hash": "0x2ba07e856d007d3d3880bc63f5e511b91f0b0b539169f26e17092f5da0f146af",
      "transactionType": "CALL",
      "contractName": null,
      "contractAddress": "0x4515aec1be9b3920febb8083b26ee41dcc5f1e71",
      "function": "createInsurance(string,string,string,uint64,uint16,uint256,uint256,uint256)",
      "arguments": [
        "KA120",
        "ICN",
        "SZX",
        "1764841830",
        "30",
        "500000000",
        "20000000",
        "5"
      ],
      "transaction": {
        "from": "0x7abedc832254daa2032505e33a8dd325841d6f2d",
        "to": "0x4515aec1be9b3920febb8083b26ee41dcc5f1e71",
        "value": "0x0",
        "input": "0x54f88ce50000000000000000000000000000000000000000000000000000000000000100000000000000000000000000000000000000000000000000000000000000014000000000000000000000000000000000000000000000000000000000000001800000000000000000000000000000000000000000000000000000000069315966000000000000000000000000000000000000000000000000000000000000001e000000000000000000000000000000000000000000000000000000001dcd65000000000000000000000000000000000000000000000000000000000001312d00000000000000000000000000000000000000000000000000000000000000000500000000000000000000000000000000000000000000000000000000000000054b41313230000000000000000000000000000000000000000000000000000000000000000000000000000000000000000000000000000000000000000000000349434e00000000000000000000000000000000000000000000000000000000000000000000000000000000000000000000000000000000000000000000000003535a580000000000000000000000000000000000000000000000000000000000",
        "nonce": "0x9b",
        "chainId": "0x3e9"
      },
      "additionalContracts": [],
      "isFixedGasLimit": false
    }
  ],
  "receipts": [
    {
      "status": "0x1",
      "cumulativeGasUsed": "0x15e30",
      "logs": [
        {
          "address": "0x980c1f069ad090b18219e9411d72558a294a32cd",
          "topics": [
            "0xddf252ad1be2c89b69c2b068fc378daa952ba7f163c4a11628f55a4df523b3ef",
            "0x0000000000000000000000000000000000000000000000000000000000000000",
            "0x0000000000000000000000007abedc832254daa2032505e33a8dd325841d6f2d"
          ],
          "data": "0x00000000000000000000000000000000000000000000000000000002540be400",
          "blockHash": "0xe5603a45763f59d45775be052d58739ef36043d1828cdfded638f140d09d27b3",
          "blockNumber": "0xbbb172a",
          "transactionHash": "0x8cba74dffadb16a24538502e131e4243bd9f0b00536286110179d9e5e8ce5899",
          "transactionIndex": "0x0",
          "logIndex": "0x0",
          "removed": false
        }
      ],
      "logsBloom": "0x00000000000000000000000000000000000100000000000000000000000000000000000000000000000000000000000000000000000000000000000000000000000000000000000000000008000000000004000000000000000000000000000000000000020000000000000000000800000000000000800000000010000000000001000000000000000000000000000000000000000000000080000000000000000000000000000000000000000000000000000000000000000000000002000000000002000000000000000000000000000000000000000000000000000020000000000000000000000000000000000000000000000000000000000000000000",
      "type": "0x2",
      "transactionHash": "0x8cba74dffadb16a24538502e131e4243bd9f0b00536286110179d9e5e8ce5899",
      "transactionIndex": "0x0",
      "blockHash": "0xe5603a45763f59d45775be052d58739ef36043d1828cdfded638f140d09d27b3",
      "blockNumber": "0xbbb172a",
      "gasUsed": "0x15e30",
      "effectiveGasPrice": "0x5d21dba01",
      "from": "0x7abedc832254daa2032505e33a8dd325841d6f2d",
      "to": "0x980c1f069ad090b18219e9411d72558a294a32cd",
      "contractAddress": null
    },
    {
      "status": "0x1",
      "cumulativeGasUsed": "0xb4cb",
      "logs": [
        {
          "address": "0x980c1f069ad090b18219e9411d72558a294a32cd",
          "topics": [
            "0x8c5be1e5ebec7d5bd14f71427d1e84f3dd0314c0f7b2291e5b200ac8c7c3b925",
            "0x0000000000000000000000007abedc832254daa2032505e33a8dd325841d6f2d",
            "0x0000000000000000000000004515aec1be9b3920febb8083b26ee41dcc5f1e71"
          ],
          "data": "0xffffffffffffffffffffffffffffffffffffffffffffffffffffffffffffffff",
          "blockHash": "0x37a604b0f1596f1c3e9b58f64f1b722ef058279c216bb419a9fd4b3cd8b6cfab",
          "blockNumber": "0xbbb172c",
          "transactionHash": "0x0c0bb630f4e3bbe6ea20403eb6b16edb8f85662feb2b5294d79e1f3c6b66308c",
          "transactionIndex": "0x0",
          "logIndex": "0x0",
          "removed": false
        }
      ],
      "logsBloom": "0x00000000000000000000000000000000000100000000000000000000000000100000000000000000000000000000004000000000000000000000000000200000000000000000000000000000000000000004000000000000000000000000000000000000000000000000000000000000000000000000800000000000000008000001000000000000000000000000000000000000000000000080000000000000020000000000000000000000000000000000000000000000000000000002000000000000000000000000000000000000000000000000000000000000000000000010000000000000000000000000000000000000000000000000000000000000",
      "type": "0x2",
      "transactionHash": "0x0c0bb630f4e3bbe6ea20403eb6b16edb8f85662feb2b5294d79e1f3c6b66308c",
      "transactionIndex": "0x0",
      "blockHash": "0x37a604b0f1596f1c3e9b58f64f1b722ef058279c216bb419a9fd4b3cd8b6cfab",
      "blockNumber": "0xbbb172c",
      "gasUsed": "0xb4cb",
      "effectiveGasPrice": "0x5d21dba01",
      "from": "0x7abedc832254daa2032505e33a8dd325841d6f2d",
      "to": "0x980c1f069ad090b18219e9411d72558a294a32cd",
      "contractAddress": null
    },
    {
      "status": "0x1",
      "cumulativeGasUsed": "0x4d017",
      "logs": [
        {
          "address": "0x980c1f069ad090b18219e9411d72558a294a32cd",
          "topics": [
            "0xddf252ad1be2c89b69c2b068fc378daa952ba7f163c4a11628f55a4df523b3ef",
            "0x0000000000000000000000007abedc832254daa2032505e33a8dd325841d6f2d",
            "0x0000000000000000000000004515aec1be9b3920febb8083b26ee41dcc5f1e71"
          ],
          "data": "0x000000000000000000000000000000000000000000000000000000001dcd6500",
          "blockHash": "0x9c4e3dad1da0b2555992d2ff5abc2b82e986217b8c5396de0ab4964ab2c292b5",
          "blockNumber": "0xbbb172d",
          "transactionHash": "0x1692c28731104cde8b96efd65ca0aed9076adaf66ea905af5186aae876048254",
          "transactionIndex": "0x0",
          "logIndex": "0x0",
          "removed": false
        },
        {
          "address": "0xead455896b2584a7738b85c3c984ceebf910f766",
          "topics": [
            "0x6a448d71fd65dbbbba6f99eb68402f18062b2c12113f2c7b6569230fa1f8a2bf",
            "0xc0097dc6e8d6365b31383163137ec43ece26c41ad2b51424199d68eceb963968",
            "0x0000000000000000000000004515aec1be9b3920febb8083b26ee41dcc5f1e71"
          ],
          "data": "0x00000000000000000000000000000000000000000000000000000000000000000000000000000000000000000000000000000000000000000000000000000100000000000000000000000000000000000000000000000000000000000000000000000000000000000000000000000000000000000000000000000000000000000000000000000000000000000000000000000000000000000000000000000000000000000000000000000000000000000000000000000000000000000000000039f95c6c49ba7b64fc9fcea853d98136875a42ee5afc07554424e26c5f234d3e0000000000000000000000000000000000000000000000000000000068cfca75000000000000000000000000000000000000000000000000000000000000005644696420666c69676874204b413130312066726f6d2049434e20746f204e5254207363686564756c6564206174203137353836323130333020617272697665206c61746572207468616e203330206d696e757465733f00000000000000000000",
          "blockHash": "0x9c4e3dad1da0b2555992d2ff5abc2b82e986217b8c5396de0ab4964ab2c292b5",
          "blockNumber": "0xbbb172d",
          "transactionHash": "0x1692c28731104cde8b96efd65ca0aed9076adaf66ea905af5186aae876048254",
          "transactionIndex": "0x0",
          "logIndex": "0x1",
          "removed": false
        },
        {
          "address": "0x4515aec1be9b3920febb8083b26ee41dcc5f1e71",
          "topics": [
            "0x14c77a4940f0fd33a03d9d1bc70b9654df868a589f3727f7b905837e4e63a754",
            "0x0000000000000000000000000000000000000000000000000000000000000001",
            "0x0000000000000000000000007abedc832254daa2032505e33a8dd325841d6f2d"
          ],
          "data": "0x000000000000000000000000000000000000000000000000000000001dcd65000000000000000000000000000000000000000000000000000000000001312d000000000000000000000000000000000000000000000000000000000000000005c0097dc6e8d6365b31383163137ec43ece26c41ad2b51424199d68eceb963968000000000000000000000000000000000000000000000000000000000000014000000000000000000000000000000000000000000000000000000000000001c0000000000000000000000000000000000000000000000000000000000000020000000000000000000000000000000000000000000000000000000000000002400000000000000000000000000000000000000000000000000000000068d26d66000000000000000000000000000000000000000000000000000000000000001e000000000000000000000000000000000000000000000000000000000000005644696420666c69676874204b413130312066726f6d2049434e20746f204e5254207363686564756c6564206174203137353836323130333020617272697665206c61746572207468616e203330206d696e757465733f0000000000000000000000000000000000000000000000000000000000000000000000000000000000054b41313031000000000000000000000000000000000000000000000000000000000000000000000000000000000000000000000000000000000000000000000349434e000000000000000000000000000000000000000000000000000000000000000000000000000000000000000000000000000000000000000000000000034e52540000000000000000000000000000000000000000000000000000000000",
          "blockHash": "0x9c4e3dad1da0b2555992d2ff5abc2b82e986217b8c5396de0ab4964ab2c292b5",
          "blockNumber": "0xbbb172d",
          "transactionHash": "0x1692c28731104cde8b96efd65ca0aed9076adaf66ea905af5186aae876048254",
          "transactionIndex": "0x0",
          "logIndex": "0x2",
          "removed": false
        }
      ],
      "logsBloom": "0x00000000001008000000000000000000000100000000000000000000000000100000000000000000000000000000004000000000000000000000000000040000000000000000000000000008000000000004000000040002080000000000000000000000000000000000000000000000000004000000800004002010000008000001000000000000000000000000000000000000000000000080000000000000000000000000000000000000000001000010000000000000000000040002000000004002001000000000000000000000000000000000000000800000000040000000000000000000000000000000000000004040000000000000000000000000",
      "type": "0x2",
      "transactionHash": "0x1692c28731104cde8b96efd65ca0aed9076adaf66ea905af5186aae876048254",
      "transactionIndex": "0x0",
      "blockHash": "0x9c4e3dad1da0b2555992d2ff5abc2b82e986217b8c5396de0ab4964ab2c292b5",
      "blockNumber": "0xbbb172d",
      "gasUsed": "0x4d017",
      "effectiveGasPrice": "0x5d21dba01",
      "from": "0x7abedc832254daa2032505e33a8dd325841d6f2d",
      "to": "0x4515aec1be9b3920febb8083b26ee41dcc5f1e71",
      "contractAddress": null
    },
    {
      "status": "0x1",
      "cumulativeGasUsed": "0x44a7f",
      "logs": [
        {
          "address": "0x980c1f069ad090b18219e9411d72558a294a32cd",
          "topics": [
            "0xddf252ad1be2c89b69c2b068fc378daa952ba7f163c4a11628f55a4df523b3ef",
            "0x0000000000000000000000007abedc832254daa2032505e33a8dd325841d6f2d",
            "0x0000000000000000000000004515aec1be9b3920febb8083b26ee41dcc5f1e71"
          ],
          "data": "0x000000000000000000000000000000000000000000000000000000001dcd6500",
          "blockHash": "0x80af2453cdbd401170c9e20939f201187db3b9091efd0672000a0318ade80b87",
          "blockNumber": "0xbbb172f",
          "transactionHash": "0x37bf71b760c839a233f7f144ce110b136ff5356227543c57e1562221e170ad97",
          "transactionIndex": "0x0",
          "logIndex": "0x0",
          "removed": false
        },
        {
          "address": "0xead455896b2584a7738b85c3c984ceebf910f766",
          "topics": [
            "0x6a448d71fd65dbbbba6f99eb68402f18062b2c12113f2c7b6569230fa1f8a2bf",
            "0x5c419e5b19e12dd8ca9ee740e608614c658293037ac382f942ab23879826f164",
            "0x0000000000000000000000004515aec1be9b3920febb8083b26ee41dcc5f1e71"
          ],
          "data": "0x000000000000000000000000000000000000000000000000000000000000000000000000000000000000000000000000000000000000000000000000000001000000000000000000000000000000000000000000000000000000000000000000000000000000000000000000000000000000000000000000000000000000000000000000000000000000000000000000000000000000000000000000000000000000000000000000000000000000000000000000000000000000000000000000c9fa1c7c89c9af9cd5df526f76b54687fc78de6983f9310a66f0a6a2742b389e0000000000000000000000000000000000000000000000000000000068cfca77000000000000000000000000000000000000000000000000000000000000005644696420666c69676874204b413230322066726f6d2049434e20746f20484e44207363686564756c6564206174203137353837393338333020617272697665206c61746572207468616e203435206d696e757465733f00000000000000000000",
          "blockHash": "0x80af2453cdbd401170c9e20939f201187db3b9091efd0672000a0318ade80b87",
          "blockNumber": "0xbbb172f",
          "transactionHash": "0x37bf71b760c839a233f7f144ce110b136ff5356227543c57e1562221e170ad97",
          "transactionIndex": "0x0",
          "logIndex": "0x1",
          "removed": false
        },
        {
          "address": "0x4515aec1be9b3920febb8083b26ee41dcc5f1e71",
          "topics": [
            "0x14c77a4940f0fd33a03d9d1bc70b9654df868a589f3727f7b905837e4e63a754",
            "0x0000000000000000000000000000000000000000000000000000000000000002",
            "0x0000000000000000000000007abedc832254daa2032505e33a8dd325841d6f2d"
          ],
          "data": "0x000000000000000000000000000000000000000000000000000000001dcd65000000000000000000000000000000000000000000000000000000000001312d0000000000000000000000000000000000000000000000000000000000000000055c419e5b19e12dd8ca9ee740e608614c658293037ac382f942ab23879826f164000000000000000000000000000000000000000000000000000000000000014000000000000000000000000000000000000000000000000000000000000001c0000000000000000000000000000000000000000000000000000000000000020000000000000000000000000000000000000000000000000000000000000002400000000000000000000000000000000000000000000000000000000068d51066000000000000000000000000000000000000000000000000000000000000002d000000000000000000000000000000000000000000000000000000000000005644696420666c69676874204b413230322066726f6d2049434e20746f20484e44207363686564756c6564206174203137353837393338333020617272697665206c61746572207468616e203435206d696e757465733f0000000000000000000000000000000000000000000000000000000000000000000000000000000000054b41323032000000000000000000000000000000000000000000000000000000000000000000000000000000000000000000000000000000000000000000000349434e00000000000000000000000000000000000000000000000000000000000000000000000000000000000000000000000000000000000000000000000003484e440000000000000000000000000000000000000000000000000000000000",
          "blockHash": "0x80af2453cdbd401170c9e20939f201187db3b9091efd0672000a0318ade80b87",
          "blockNumber": "0xbbb172f",
          "transactionHash": "0x37bf71b760c839a233f7f144ce110b136ff5356227543c57e1562221e170ad97",
          "transactionIndex": "0x0",
          "logIndex": "0x2",
          "removed": false
        }
      ],
      "logsBloom": "0x04000000001008000000000000000000000100000000000000000000000000100000000000000000000000000000004000000000000000000000000000000000000000000000000004000008000000000004000000000002080000000000000000000000000000000000000000000000000004000000800004000010000008000001000000000000000000000000000000000000000000000080000800000000000000000000000000000100000001000000000000000000000000040002000000004002001000000000000000000000000000000000000000800000000000020000000000000000000000000000000000004000008000000000000000000000",
      "type": "0x2",
      "transactionHash": "0x37bf71b760c839a233f7f144ce110b136ff5356227543c57e1562221e170ad97",
      "transactionIndex": "0x0",
      "blockHash": "0x80af2453cdbd401170c9e20939f201187db3b9091efd0672000a0318ade80b87",
      "blockNumber": "0xbbb172f",
      "gasUsed": "0x44a7f",
      "effectiveGasPrice": "0x5d21dba01",
      "from": "0x7abedc832254daa2032505e33a8dd325841d6f2d",
      "to": "0x4515aec1be9b3920febb8083b26ee41dcc5f1e71",
      "contractAddress": null
    },
    {
      "status": "0x1",
      "cumulativeGasUsed": "0x44a7f",
      "logs": [
        {
          "address": "0x980c1f069ad090b18219e9411d72558a294a32cd",
          "topics": [
            "0xddf252ad1be2c89b69c2b068fc378daa952ba7f163c4a11628f55a4df523b3ef",
            "0x0000000000000000000000007abedc832254daa2032505e33a8dd325841d6f2d",
            "0x0000000000000000000000004515aec1be9b3920febb8083b26ee41dcc5f1e71"
          ],
          "data": "0x000000000000000000000000000000000000000000000000000000001dcd6500",
          "blockHash": "0xb153f73f2b780bf51552cc5aa3c40cffbc09dbc553ca5c6d3963f63915c24915",
          "blockNumber": "0xbbb1731",
          "transactionHash": "0x008a7425746b453d9f85c316e6b21ab9efd90d96c4859c4da72d2a3609efc516",
          "transactionIndex": "0x0",
          "logIndex": "0x0",
          "removed": false
        },
        {
          "address": "0xead455896b2584a7738b85c3c984ceebf910f766",
          "topics": [
            "0x6a448d71fd65dbbbba6f99eb68402f18062b2c12113f2c7b6569230fa1f8a2bf",
            "0x1682842f5cfd86864d2bc7d210f05883e0c3882fa7118021899f8f8882bf666c",
            "0x0000000000000000000000004515aec1be9b3920febb8083b26ee41dcc5f1e71"
          ],
          "data": "0x00000000000000000000000000000000000000000000000000000000000000000000000000000000000000000000000000000000000000000000000000000100000000000000000000000000000000000000000000000000000000000000000000000000000000000000000000000000000000000000000000000000000000000000000000000000000000000000000000000000000000000000000000000000000000000000000000000000000000000000000000000000000000000000000093633580b3a1d6a4e1e85311ffbb3a50839cc5615a5407b6204d602d4dfa49040000000000000000000000000000000000000000000000000000000068cfca79000000000000000000000000000000000000000000000000000000000000005644696420666c69676874204b413330332066726f6d20474d5020746f204b4958207363686564756c6564206174203137353930353330333020617272697665206c61746572207468616e203630206d696e757465733f00000000000000000000",
          "blockHash": "0xb153f73f2b780bf51552cc5aa3c40cffbc09dbc553ca5c6d3963f63915c24915",
          "blockNumber": "0xbbb1731",
          "transactionHash": "0x008a7425746b453d9f85c316e6b21ab9efd90d96c4859c4da72d2a3609efc516",
          "transactionIndex": "0x0",
          "logIndex": "0x1",
          "removed": false
        },
        {
          "address": "0x4515aec1be9b3920febb8083b26ee41dcc5f1e71",
          "topics": [
            "0x14c77a4940f0fd33a03d9d1bc70b9654df868a589f3727f7b905837e4e63a754",
            "0x0000000000000000000000000000000000000000000000000000000000000003",
            "0x0000000000000000000000007abedc832254daa2032505e33a8dd325841d6f2d"
          ],
          "data": "0x000000000000000000000000000000000000000000000000000000001dcd65000000000000000000000000000000000000000000000000000000000001312d0000000000000000000000000000000000000000000000000000000000000000051682842f5cfd86864d2bc7d210f05883e0c3882fa7118021899f8f8882bf666c000000000000000000000000000000000000000000000000000000000000014000000000000000000000000000000000000000000000000000000000000001c0000000000000000000000000000000000000000000000000000000000000020000000000000000000000000000000000000000000000000000000000000002400000000000000000000000000000000000000000000000000000000068d904e6000000000000000000000000000000000000000000000000000000000000003c000000000000000000000000000000000000000000000000000000000000005644696420666c69676874204b413330332066726f6d20474d5020746f204b4958207363686564756c6564206174203137353930353330333020617272697665206c61746572207468616e203630206d696e757465733f0000000000000000000000000000000000000000000000000000000000000000000000000000000000054b413330330000000000000000000000000000000000000000000000000000000000000000000000000000000000000000000000000000000000000000000003474d50000000000000000000000000000000000000000000000000000000000000000000000000000000000000000000000000000000000000000000000000034b49580000000000000000000000000000000000000000000000000000000000",
          "blockHash": "0xb153f73f2b780bf51552cc5aa3c40cffbc09dbc553ca5c6d3963f63915c24915",
          "blockNumber": "0xbbb1731",
          "transactionHash": "0x008a7425746b453d9f85c316e6b21ab9efd90d96c4859c4da72d2a3609efc516",
          "transactionIndex": "0x0",
          "logIndex": "0x2",
          "removed": false
        }
      ],
      "logsBloom": "0x00000000001008000000000000000000000100000000000000004000000000100000000000000000000040000000004000000000020000000000000000000000000000000000000000000008000000000004000000000002080000000000000000000000000000000000000000000000000004000000800004000010000008000001000000000000000000000000000000000000000000000080000000000000000000000000000000000000000001000000000000800000000000040002400000004002001000000000000000000000000000000000000000800000000000000000000000000000000000000000000000004000000000000000000000000000",
      "type": "0x2",
      "transactionHash": "0x008a7425746b453d9f85c316e6b21ab9efd90d96c4859c4da72d2a3609efc516",
      "transactionIndex": "0x0",
      "blockHash": "0xb153f73f2b780bf51552cc5aa3c40cffbc09dbc553ca5c6d3963f63915c24915",
      "blockNumber": "0xbbb1731",
      "gasUsed": "0x44a7f",
      "effectiveGasPrice": "0x5d21dba01",
      "from": "0x7abedc832254daa2032505e33a8dd325841d6f2d",
      "to": "0x4515aec1be9b3920febb8083b26ee41dcc5f1e71",
      "contractAddress": null
    },
    {
      "status": "0x1",
      "cumulativeGasUsed": "0x44a7f",
      "logs": [
        {
          "address": "0x980c1f069ad090b18219e9411d72558a294a32cd",
          "topics": [
            "0xddf252ad1be2c89b69c2b068fc378daa952ba7f163c4a11628f55a4df523b3ef",
            "0x0000000000000000000000007abedc832254daa2032505e33a8dd325841d6f2d",
            "0x0000000000000000000000004515aec1be9b3920febb8083b26ee41dcc5f1e71"
          ],
          "data": "0x000000000000000000000000000000000000000000000000000000001dcd6500",
          "blockHash": "0x36b2f5dae892364e1214e2f97c4cc80b9ed13138f65740e8a63230f52b0ea0f2",
          "blockNumber": "0xbbb1733",
          "transactionHash": "0xa566f4535289850ca78753a62fd85d90263bb79479411da6b84c6c8a71357149",
          "transactionIndex": "0x0",
          "logIndex": "0x0",
          "removed": false
        },
        {
          "address": "0xead455896b2584a7738b85c3c984ceebf910f766",
          "topics": [
            "0x6a448d71fd65dbbbba6f99eb68402f18062b2c12113f2c7b6569230fa1f8a2bf",
            "0xe8bf45e9db4e4e6885b2d06b3d4c104d2767d86d4482f2828caa511abb1c62c7",
            "0x0000000000000000000000004515aec1be9b3920febb8083b26ee41dcc5f1e71"
          ],
          "data": "0x000000000000000000000000000000000000000000000000000000000000000000000000000000000000000000000000000000000000000000000000000001000000000000000000000000000000000000000000000000000000000000000000000000000000000000000000000000000000000000000000000000000000000000000000000000000000000000000000000000000000000000000000000000000000000000000000000000000000000000000000000000000000000000000000ced7c7c6d2335e4290942efa6a0086f8b1910ef4ee24a1aee1a26b7b9ce7a7600000000000000000000000000000000000000000000000000000000068cfca7b000000000000000000000000000000000000000000000000000000000000005644696420666c69676874204b413430342066726f6d2049434e20746f204c4158207363686564756c6564206174203137353933313232333020617272697665206c61746572207468616e203930206d696e757465733f00000000000000000000",
          "blockHash": "0x36b2f5dae892364e1214e2f97c4cc80b9ed13138f65740e8a63230f52b0ea0f2",
          "blockNumber": "0xbbb1733",
          "transactionHash": "0xa566f4535289850ca78753a62fd85d90263bb79479411da6b84c6c8a71357149",
          "transactionIndex": "0x0",
          "logIndex": "0x1",
          "removed": false
        },
        {
          "address": "0x4515aec1be9b3920febb8083b26ee41dcc5f1e71",
          "topics": [
            "0x14c77a4940f0fd33a03d9d1bc70b9654df868a589f3727f7b905837e4e63a754",
            "0x0000000000000000000000000000000000000000000000000000000000000004",
            "0x0000000000000000000000007abedc832254daa2032505e33a8dd325841d6f2d"
          ],
          "data": "0x000000000000000000000000000000000000000000000000000000001dcd65000000000000000000000000000000000000000000000000000000000001312d000000000000000000000000000000000000000000000000000000000000000005e8bf45e9db4e4e6885b2d06b3d4c104d2767d86d4482f2828caa511abb1c62c7000000000000000000000000000000000000000000000000000000000000014000000000000000000000000000000000000000000000000000000000000001c0000000000000000000000000000000000000000000000000000000000000020000000000000000000000000000000000000000000000000000000000000002400000000000000000000000000000000000000000000000000000000068dcf966000000000000000000000000000000000000000000000000000000000000005a000000000000000000000000000000000000000000000000000000000000005644696420666c69676874204b413430342066726f6d2049434e20746f204c4158207363686564756c6564206174203137353933313232333020617272697665206c61746572207468616e203930206d696e757465733f0000000000000000000000000000000000000000000000000000000000000000000000000000000000054b41343034000000000000000000000000000000000000000000000000000000000000000000000000000000000000000000000000000000000000000000000349434e000000000000000000000000000000000000000000000000000000000000000000000000000000000000000000000000000000000000000000000000034c41580000000000000000000000000000000000000000000000000000000000",
          "blockHash": "0x36b2f5dae892364e1214e2f97c4cc80b9ed13138f65740e8a63230f52b0ea0f2",
          "blockNumber": "0xbbb1733",
          "transactionHash": "0xa566f4535289850ca78753a62fd85d90263bb79479411da6b84c6c8a71357149",
          "transactionIndex": "0x0",
          "logIndex": "0x2",
          "removed": false
        }
      ],
      "logsBloom": "0x00000000001008000000000000000000000100000000000000000000000000100000000000000000000000000000004200000000000000000000000000000000000000000000000000000008000000000004000000000002080000000000000008000000000000000000000000000000000004000000800004000010000008000001000000000000000000000000000000000000000000000080000000000000000000000000000000000000000001000040000000000000002000040002000000004002001000000400000000000000000000008000000000800000000000000000000000000000000000000000000000004000000000000000000000000000",
      "type": "0x2",
      "transactionHash": "0xa566f4535289850ca78753a62fd85d90263bb79479411da6b84c6c8a71357149",
      "transactionIndex": "0x0",
      "blockHash": "0x36b2f5dae892364e1214e2f97c4cc80b9ed13138f65740e8a63230f52b0ea0f2",
      "blockNumber": "0xbbb1733",
      "gasUsed": "0x44a7f",
      "effectiveGasPrice": "0x5d21dba01",
      "from": "0x7abedc832254daa2032505e33a8dd325841d6f2d",
      "to": "0x4515aec1be9b3920febb8083b26ee41dcc5f1e71",
      "contractAddress": null
    },
    {
      "status": "0x1",
      "cumulativeGasUsed": "0x44a7f",
      "logs": [
        {
          "address": "0x980c1f069ad090b18219e9411d72558a294a32cd",
          "topics": [
            "0xddf252ad1be2c89b69c2b068fc378daa952ba7f163c4a11628f55a4df523b3ef",
            "0x0000000000000000000000007abedc832254daa2032505e33a8dd325841d6f2d",
            "0x0000000000000000000000004515aec1be9b3920febb8083b26ee41dcc5f1e71"
          ],
          "data": "0x000000000000000000000000000000000000000000000000000000001dcd6500",
          "blockHash": "0xf4aeae9f392191dd287d22c933ca2c0147d7d4d001c91bf83cf8d79989c8bd87",
          "blockNumber": "0xbbb1735",
          "transactionHash": "0x6dc4ea4019da83c7e16eef95967b808bd39d18cf8793857b0b969fbaf0a40792",
          "transactionIndex": "0x0",
          "logIndex": "0x0",
          "removed": false
        },
        {
          "address": "0xead455896b2584a7738b85c3c984ceebf910f766",
          "topics": [
            "0x6a448d71fd65dbbbba6f99eb68402f18062b2c12113f2c7b6569230fa1f8a2bf",
            "0xa03ee989009ad3654c007a4cd89eadb9c64ed637adb845b0ad35e3c51bcb2abd",
            "0x0000000000000000000000004515aec1be9b3920febb8083b26ee41dcc5f1e71"
          ],
          "data": "0x000000000000000000000000000000000000000000000000000000000000000000000000000000000000000000000000000000000000000000000000000001000000000000000000000000000000000000000000000000000000000000000000000000000000000000000000000000000000000000000000000000000000000000000000000000000000000000000000000000000000000000000000000000000000000000000000000000000000000000000000000000000000000000000000cce3fd3d9ac7b8db4fecca45385d1977c509754eea9db5b6d95904d3f3a095fb0000000000000000000000000000000000000000000000000000000068cfca7d000000000000000000000000000000000000000000000000000000000000005644696420666c69676874204b413530352066726f6d2049434e20746f2053464f207363686564756c6564206174203137353936353738333020617272697665206c61746572207468616e203630206d696e757465733f00000000000000000000",
          "blockHash": "0xf4aeae9f392191dd287d22c933ca2c0147d7d4d001c91bf83cf8d79989c8bd87",
          "blockNumber": "0xbbb1735",
          "transactionHash": "0x6dc4ea4019da83c7e16eef95967b808bd39d18cf8793857b0b969fbaf0a40792",
          "transactionIndex": "0x0",
          "logIndex": "0x1",
          "removed": false
        },
        {
          "address": "0x4515aec1be9b3920febb8083b26ee41dcc5f1e71",
          "topics": [
            "0x14c77a4940f0fd33a03d9d1bc70b9654df868a589f3727f7b905837e4e63a754",
            "0x0000000000000000000000000000000000000000000000000000000000000005",
            "0x0000000000000000000000007abedc832254daa2032505e33a8dd325841d6f2d"
          ],
          "data": "0x000000000000000000000000000000000000000000000000000000001dcd65000000000000000000000000000000000000000000000000000000000001312d000000000000000000000000000000000000000000000000000000000000000005a03ee989009ad3654c007a4cd89eadb9c64ed637adb845b0ad35e3c51bcb2abd000000000000000000000000000000000000000000000000000000000000014000000000000000000000000000000000000000000000000000000000000001c0000000000000000000000000000000000000000000000000000000000000020000000000000000000000000000000000000000000000000000000000000002400000000000000000000000000000000000000000000000000000000068e23f66000000000000000000000000000000000000000000000000000000000000003c000000000000000000000000000000000000000000000000000000000000005644696420666c69676874204b413530352066726f6d2049434e20746f2053464f207363686564756c6564206174203137353936353738333020617272697665206c61746572207468616e203630206d696e757465733f0000000000000000000000000000000000000000000000000000000000000000000000000000000000054b41353035000000000000000000000000000000000000000000000000000000000000000000000000000000000000000000000000000000000000000000000349434e0000000000000000000000000000000000000000000000000000000000000000000000000000000000000000000000000000000000000000000000000353464f0000000000000000000000000000000000000000000000000000000000",
          "blockHash": "0xf4aeae9f392191dd287d22c933ca2c0147d7d4d001c91bf83cf8d79989c8bd87",
          "blockNumber": "0xbbb1735",
          "transactionHash": "0x6dc4ea4019da83c7e16eef95967b808bd39d18cf8793857b0b969fbaf0a40792",
          "transactionIndex": "0x0",
          "logIndex": "0x2",
          "removed": false
        }
      ],
      "logsBloom": "0x00000000001008000000000000000000000100000000400000000000000000100000000000000000000000000000004000000000000000000000000000000000000010000000000000000008008000000004000000000002080000000000000000000000000000000000000000000000000004000000800004000010000008000001000000000000000000000000001000000800000000000080000000000000000000000000000000000000000001000000000000000100000000040002000000004002001000000000000000000000000000000000000000800000000000000000000000000000000000000000000000004000000000000000000000000000",
      "type": "0x2",
      "transactionHash": "0x6dc4ea4019da83c7e16eef95967b808bd39d18cf8793857b0b969fbaf0a40792",
      "transactionIndex": "0x0",
      "blockHash": "0xf4aeae9f392191dd287d22c933ca2c0147d7d4d001c91bf83cf8d79989c8bd87",
      "blockNumber": "0xbbb1735",
      "gasUsed": "0x44a7f",
      "effectiveGasPrice": "0x5d21dba01",
      "from": "0x7abedc832254daa2032505e33a8dd325841d6f2d",
      "to": "0x4515aec1be9b3920febb8083b26ee41dcc5f1e71",
      "contractAddress": null
    },
    {
      "status": "0x1",
      "cumulativeGasUsed": "0x2a3310",
      "logs": [
        {
          "address": "0x980c1f069ad090b18219e9411d72558a294a32cd",
          "topics": [
            "0xddf252ad1be2c89b69c2b068fc378daa952ba7f163c4a11628f55a4df523b3ef",
            "0x0000000000000000000000007abedc832254daa2032505e33a8dd325841d6f2d",
            "0x0000000000000000000000004515aec1be9b3920febb8083b26ee41dcc5f1e71"
          ],
          "data": "0x000000000000000000000000000000000000000000000000000000001dcd6500",
          "blockHash": "0x8ef0a77ec6a08817b54f56771a8f58bfad22d2760e6feb26a9ebaa3511d16904",
          "blockNumber": "0xbbb1737",
          "transactionHash": "0x7a073068f5c12d68712d7343fbc8e6b00d5a3677441cf7b0f2c5f034e6db6328",
          "transactionIndex": "0x1",
          "logIndex": "0x1f",
          "removed": false
        },
        {
          "address": "0xead455896b2584a7738b85c3c984ceebf910f766",
          "topics": [
            "0x6a448d71fd65dbbbba6f99eb68402f18062b2c12113f2c7b6569230fa1f8a2bf",
            "0xf9cf8089a8116558277cfcbc73766da8f439764fc3e7862cd44948cb982bca61",
            "0x0000000000000000000000004515aec1be9b3920febb8083b26ee41dcc5f1e71"
          ],
          "data": "0x000000000000000000000000000000000000000000000000000000000000000000000000000000000000000000000000000000000000000000000000000001000000000000000000000000000000000000000000000000000000000000000000000000000000000000000000000000000000000000000000000000000000000000000000000000000000000000000000000000000000000000000000000000000000000000000000000000000000000000000000000000000000000000000000edd42dcf954d3e628d8c2592e4e60b82b39a28df427f0f994c9130657de730640000000000000000000000000000000000000000000000000000000068cfca7f000000000000000000000000000000000000000000000000000000000000005644696420666c69676874204b413630362066726f6d2049434e20746f2053494e207363686564756c6564206174203137363030303334333020617272697665206c61746572207468616e203435206d696e757465733f00000000000000000000",
          "blockHash": "0x8ef0a77ec6a08817b54f56771a8f58bfad22d2760e6feb26a9ebaa3511d16904",
          "blockNumber": "0xbbb1737",
          "transactionHash": "0x7a073068f5c12d68712d7343fbc8e6b00d5a3677441cf7b0f2c5f034e6db6328",
          "transactionIndex": "0x1",
          "logIndex": "0x20",
          "removed": false
        },
        {
          "address": "0x4515aec1be9b3920febb8083b26ee41dcc5f1e71",
          "topics": [
            "0x14c77a4940f0fd33a03d9d1bc70b9654df868a589f3727f7b905837e4e63a754",
            "0x0000000000000000000000000000000000000000000000000000000000000006",
            "0x0000000000000000000000007abedc832254daa2032505e33a8dd325841d6f2d"
          ],
          "data": "0x000000000000000000000000000000000000000000000000000000001dcd65000000000000000000000000000000000000000000000000000000000001312d000000000000000000000000000000000000000000000000000000000000000005f9cf8089a8116558277cfcbc73766da8f439764fc3e7862cd44948cb982bca61000000000000000000000000000000000000000000000000000000000000014000000000000000000000000000000000000000000000000000000000000001c0000000000000000000000000000000000000000000000000000000000000020000000000000000000000000000000000000000000000000000000000000002400000000000000000000000000000000000000000000000000000000068e78566000000000000000000000000000000000000000000000000000000000000002d000000000000000000000000000000000000000000000000000000000000005644696420666c69676874204b413630362066726f6d2049434e20746f2053494e207363686564756c6564206174203137363030303334333020617272697665206c61746572207468616e203435206d696e757465733f0000000000000000000000000000000000000000000000000000000000000000000000000000000000054b41363036000000000000000000000000000000000000000000000000000000000000000000000000000000000000000000000000000000000000000000000349434e0000000000000000000000000000000000000000000000000000000000000000000000000000000000000000000000000000000000000000000000000353494e0000000000000000000000000000000000000000000000000000000000",
          "blockHash": "0x8ef0a77ec6a08817b54f56771a8f58bfad22d2760e6feb26a9ebaa3511d16904",
          "blockNumber": "0xbbb1737",
          "transactionHash": "0x7a073068f5c12d68712d7343fbc8e6b00d5a3677441cf7b0f2c5f034e6db6328",
          "transactionIndex": "0x1",
          "logIndex": "0x21",
          "removed": false
        }
      ],
      "logsBloom": "0x000000000010080000000000000000000001000000000000000000000000001000000000000000000000000000000040000000000004000000000000000000000000000000000000000000080000000000040000000000020800000000000000000000000000000000200000020000000000040000008000040000100000080000010004000000000000000000000000000000000000000000800000000000000000000000000000000000000000010000000000000000000000010c0002000000004002001000000000000000000000000000000000000000800000000000000000000000000000000000000000000000004000000000000000000000000000",
      "type": "0x2",
      "transactionHash": "0x7a073068f5c12d68712d7343fbc8e6b00d5a3677441cf7b0f2c5f034e6db6328",
      "transactionIndex": "0x1",
      "blockHash": "0x8ef0a77ec6a08817b54f56771a8f58bfad22d2760e6feb26a9ebaa3511d16904",
      "blockNumber": "0xbbb1737",
      "gasUsed": "0x44a7f",
      "effectiveGasPrice": "0x5d21dba01",
      "from": "0x7abedc832254daa2032505e33a8dd325841d6f2d",
      "to": "0x4515aec1be9b3920febb8083b26ee41dcc5f1e71",
      "contractAddress": null
    },
    {
      "status": "0x1",
      "cumulativeGasUsed": "0x4383ea",
      "logs": [
        {
          "address": "0x980c1f069ad090b18219e9411d72558a294a32cd",
          "topics": [
            "0xddf252ad1be2c89b69c2b068fc378daa952ba7f163c4a11628f55a4df523b3ef",
            "0x0000000000000000000000007abedc832254daa2032505e33a8dd325841d6f2d",
            "0x0000000000000000000000004515aec1be9b3920febb8083b26ee41dcc5f1e71"
          ],
          "data": "0x000000000000000000000000000000000000000000000000000000001dcd6500",
          "blockHash": "0x00cdcaf729cd4e4794ad23e0261a78754c9a1bd9723bb34b381f2b5968c304fe",
          "blockNumber": "0xbbb173b",
          "transactionHash": "0x4e3392b8bf3299feb50f933325e84b83005014e606191e7c1df3ee72c813824e",
          "transactionIndex": "0x2",
          "logIndex": "0x33",
          "removed": false
        },
        {
          "address": "0xead455896b2584a7738b85c3c984ceebf910f766",
          "topics": [
            "0x6a448d71fd65dbbbba6f99eb68402f18062b2c12113f2c7b6569230fa1f8a2bf",
            "0xbde0ff62ea2939e9f598c671dfb1e6154166493f6e5d787bd3e0a69962a0e82a",
            "0x0000000000000000000000004515aec1be9b3920febb8083b26ee41dcc5f1e71"
          ],
          "data": "0x0000000000000000000000000000000000000000000000000000000000000000000000000000000000000000000000000000000000000000000000000000010000000000000000000000000000000000000000000000000000000000000000000000000000000000000000000000000000000000000000000000000000000000000000000000000000000000000000000000000000000000000000000000000000000000000000000000000000000000000000000000000000000000000000004433ce4a71b62d4f8d07a6fb0dc661a3f0b3fd6da4c55361b729650e9717d5ed0000000000000000000000000000000000000000000000000000000068cfca83000000000000000000000000000000000000000000000000000000000000005644696420666c69676874204b413730372066726f6d2049434e20746f20424b4b207363686564756c6564206174203137363033343930333020617272697665206c61746572207468616e203330206d696e757465733f00000000000000000000",
          "blockHash": "0x00cdcaf729cd4e4794ad23e0261a78754c9a1bd9723bb34b381f2b5968c304fe",
          "blockNumber": "0xbbb173b",
          "transactionHash": "0x4e3392b8bf3299feb50f933325e84b83005014e606191e7c1df3ee72c813824e",
          "transactionIndex": "0x2",
          "logIndex": "0x34",
          "removed": false
        },
        {
          "address": "0x4515aec1be9b3920febb8083b26ee41dcc5f1e71",
          "topics": [
            "0x14c77a4940f0fd33a03d9d1bc70b9654df868a589f3727f7b905837e4e63a754",
            "0x0000000000000000000000000000000000000000000000000000000000000007",
            "0x0000000000000000000000007abedc832254daa2032505e33a8dd325841d6f2d"
          ],
          "data": "0x000000000000000000000000000000000000000000000000000000001dcd65000000000000000000000000000000000000000000000000000000000001312d000000000000000000000000000000000000000000000000000000000000000005bde0ff62ea2939e9f598c671dfb1e6154166493f6e5d787bd3e0a69962a0e82a000000000000000000000000000000000000000000000000000000000000014000000000000000000000000000000000000000000000000000000000000001c0000000000000000000000000000000000000000000000000000000000000020000000000000000000000000000000000000000000000000000000000000002400000000000000000000000000000000000000000000000000000000068eccb66000000000000000000000000000000000000000000000000000000000000001e000000000000000000000000000000000000000000000000000000000000005644696420666c69676874204b413730372066726f6d2049434e20746f20424b4b207363686564756c6564206174203137363033343930333020617272697665206c61746572207468616e203330206d696e757465733f0000000000000000000000000000000000000000000000000000000000000000000000000000000000054b41373037000000000000000000000000000000000000000000000000000000000000000000000000000000000000000000000000000000000000000000000349434e00000000000000000000000000000000000000000000000000000000000000000000000000000000000000000000000000000000000000000000000003424b4b0000000000000000000000000000000000000000000000000000000000",
          "blockHash": "0x00cdcaf729cd4e4794ad23e0261a78754c9a1bd9723bb34b381f2b5968c304fe",
          "blockNumber": "0xbbb173b",
          "transactionHash": "0x4e3392b8bf3299feb50f933325e84b83005014e606191e7c1df3ee72c813824e",
          "transactionIndex": "0x2",
          "logIndex": "0x35",
          "removed": false
        }
      ],
      "logsBloom": "0x00000002001008000000000000000000000100000000000000000000000000100001000000000000000000000000004000201000000000000000000000000000000020000000000000000008000000000004000000000002080000000000000000000000000000000000000000000000000004000000800004000010000008000001000000000000000000000000000000000000000000000080000000000000000000000000000000000000000001000000000000000000000000040002000000004002001000000000000000000000000000000000000000800100000000000000000000000000000000000000000000004000000000000000000000000000",
      "type": "0x2",
      "transactionHash": "0x4e3392b8bf3299feb50f933325e84b83005014e606191e7c1df3ee72c813824e",
      "transactionIndex": "0x2",
      "blockHash": "0x00cdcaf729cd4e4794ad23e0261a78754c9a1bd9723bb34b381f2b5968c304fe",
      "blockNumber": "0xbbb173b",
      "gasUsed": "0x44a7f",
      "effectiveGasPrice": "0x5d21dba01",
      "from": "0x7abedc832254daa2032505e33a8dd325841d6f2d",
      "to": "0x4515aec1be9b3920febb8083b26ee41dcc5f1e71",
      "contractAddress": null
    },
    {
      "status": "0x1",
      "cumulativeGasUsed": "0x44a7f",
      "logs": [
        {
          "address": "0x980c1f069ad090b18219e9411d72558a294a32cd",
          "topics": [
            "0xddf252ad1be2c89b69c2b068fc378daa952ba7f163c4a11628f55a4df523b3ef",
            "0x0000000000000000000000007abedc832254daa2032505e33a8dd325841d6f2d",
            "0x0000000000000000000000004515aec1be9b3920febb8083b26ee41dcc5f1e71"
          ],
          "data": "0x000000000000000000000000000000000000000000000000000000001dcd6500",
          "blockHash": "0x7120e3456f96afac0517a5e931a6f541a920abe5c7505e167ecb7f68eadc3cca",
          "blockNumber": "0xbbb173e",
          "transactionHash": "0xdb9155d609b0a7f296efa1b2d7d3240adc37186c9ea88ca3fa3bbbcc9aeb7a61",
          "transactionIndex": "0x0",
          "logIndex": "0x0",
          "removed": false
        },
        {
          "address": "0xead455896b2584a7738b85c3c984ceebf910f766",
          "topics": [
            "0x6a448d71fd65dbbbba6f99eb68402f18062b2c12113f2c7b6569230fa1f8a2bf",
            "0x96bb810633e2e543637f5a4334cb4902dc2405b2346a1b178c874bfb8a74b473",
            "0x0000000000000000000000004515aec1be9b3920febb8083b26ee41dcc5f1e71"
          ],
          "data": "0x0000000000000000000000000000000000000000000000000000000000000000000000000000000000000000000000000000000000000000000000000000010000000000000000000000000000000000000000000000000000000000000000000000000000000000000000000000000000000000000000000000000000000000000000000000000000000000000000000000000000000000000000000000000000000000000000000000000000000000000000000000000000000000000000006951ae90829909a3b3bd7b469ec5344b4ed5070dab1245c65a03f67375e9922e0000000000000000000000000000000000000000000000000000000068cfca86000000000000000000000000000000000000000000000000000000000000005644696420666c69676874204b413830382066726f6d2049434e20746f20484b47207363686564756c6564206174203137363036393436333020617272697665206c61746572207468616e203435206d696e757465733f00000000000000000000",
          "blockHash": "0x7120e3456f96afac0517a5e931a6f541a920abe5c7505e167ecb7f68eadc3cca",
          "blockNumber": "0xbbb173e",
          "transactionHash": "0xdb9155d609b0a7f296efa1b2d7d3240adc37186c9ea88ca3fa3bbbcc9aeb7a61",
          "transactionIndex": "0x0",
          "logIndex": "0x1",
          "removed": false
        },
        {
          "address": "0x4515aec1be9b3920febb8083b26ee41dcc5f1e71",
          "topics": [
            "0x14c77a4940f0fd33a03d9d1bc70b9654df868a589f3727f7b905837e4e63a754",
            "0x0000000000000000000000000000000000000000000000000000000000000008",
            "0x0000000000000000000000007abedc832254daa2032505e33a8dd325841d6f2d"
          ],
          "data": "0x000000000000000000000000000000000000000000000000000000001dcd65000000000000000000000000000000000000000000000000000000000001312d00000000000000000000000000000000000000000000000000000000000000000596bb810633e2e543637f5a4334cb4902dc2405b2346a1b178c874bfb8a74b473000000000000000000000000000000000000000000000000000000000000014000000000000000000000000000000000000000000000000000000000000001c0000000000000000000000000000000000000000000000000000000000000020000000000000000000000000000000000000000000000000000000000000002400000000000000000000000000000000000000000000000000000000068f21166000000000000000000000000000000000000000000000000000000000000002d000000000000000000000000000000000000000000000000000000000000005644696420666c69676874204b413830382066726f6d2049434e20746f20484b47207363686564756c6564206174203137363036393436333020617272697665206c61746572207468616e203435206d696e757465733f0000000000000000000000000000000000000000000000000000000000000000000000000000000000054b41383038000000000000000000000000000000000000000000000000000000000000000000000000000000000000000000000000000000000000000000000349434e00000000000000000000000000000000000000000000000000000000000000000000000000000000000000000000000000000000000000000000000003484b470000000000000000000000000000000000000000000000000000000000",
          "blockHash": "0x7120e3456f96afac0517a5e931a6f541a920abe5c7505e167ecb7f68eadc3cca",
          "blockNumber": "0xbbb173e",
          "transactionHash": "0xdb9155d609b0a7f296efa1b2d7d3240adc37186c9ea88ca3fa3bbbcc9aeb7a61",
          "transactionIndex": "0x0",
          "logIndex": "0x2",
          "removed": false
        }
      ],
      "logsBloom": "0x02000000001008000000000000000000000100000000000000000000000000100000000000000000000000000000004000000000000080000000000000000000000000000000000000000008000000000004000000000002080000000000000000000000000000000000000000000000000004000000800004000010000008000081000000000000000100000000000000000000000000000080000000000000000000000000000000000000000001200000000000000000000000040002000040004002001000000000000000000000000000000000000000800000000000000000000000000000000000000000000000004000000000000000000000000000",
      "type": "0x2",
      "transactionHash": "0xdb9155d609b0a7f296efa1b2d7d3240adc37186c9ea88ca3fa3bbbcc9aeb7a61",
      "transactionIndex": "0x0",
      "blockHash": "0x7120e3456f96afac0517a5e931a6f541a920abe5c7505e167ecb7f68eadc3cca",
      "blockNumber": "0xbbb173e",
      "gasUsed": "0x44a7f",
      "effectiveGasPrice": "0x5d21dba01",
      "from": "0x7abedc832254daa2032505e33a8dd325841d6f2d",
      "to": "0x4515aec1be9b3920febb8083b26ee41dcc5f1e71",
      "contractAddress": null
    },
    {
      "status": "0x1",
      "cumulativeGasUsed": "0x44a7f",
      "logs": [
        {
          "address": "0x980c1f069ad090b18219e9411d72558a294a32cd",
          "topics": [
            "0xddf252ad1be2c89b69c2b068fc378daa952ba7f163c4a11628f55a4df523b3ef",
            "0x0000000000000000000000007abedc832254daa2032505e33a8dd325841d6f2d",
            "0x0000000000000000000000004515aec1be9b3920febb8083b26ee41dcc5f1e71"
          ],
          "data": "0x000000000000000000000000000000000000000000000000000000001dcd6500",
          "blockHash": "0x44fe8a4a5b51649253f4894157c1310e06aa7afc39a6ada44dba2dfd8c4bce21",
          "blockNumber": "0xbbb1740",
          "transactionHash": "0xc7bcb0fbe55e9da89be2da60224442ee2e02f81c6ef62fc3b3e868070a511739",
          "transactionIndex": "0x0",
          "logIndex": "0x0",
          "removed": false
        },
        {
          "address": "0xead455896b2584a7738b85c3c984ceebf910f766",
          "topics": [
            "0x6a448d71fd65dbbbba6f99eb68402f18062b2c12113f2c7b6569230fa1f8a2bf",
            "0x9e732d739af620fe27e01bd0f54de4362fea2320cb1b17b11983826ec37cdfdf",
            "0x0000000000000000000000004515aec1be9b3920febb8083b26ee41dcc5f1e71"
          ],
          "data": "0x000000000000000000000000000000000000000000000000000000000000000000000000000000000000000000000000000000000000000000000000000001000000000000000000000000000000000000000000000000000000000000000000000000000000000000000000000000000000000000000000000000000000000000000000000000000000000000000000000000000000000000000000000000000000000000000000000000000000000000000000000000000000000000000000e7a49689599b783fdb4238b9b3407d0594c042539bc028da4847d3e59b2dbcbb0000000000000000000000000000000000000000000000000000000068cfca88000000000000000000000000000000000000000000000000000000000000005644696420666c69676874204b413930392066726f6d2050555320746f204e5254207363686564756c6564206174203137363130343032333020617272697665206c61746572207468616e203630206d696e757465733f00000000000000000000",
          "blockHash": "0x44fe8a4a5b51649253f4894157c1310e06aa7afc39a6ada44dba2dfd8c4bce21",
          "blockNumber": "0xbbb1740",
          "transactionHash": "0xc7bcb0fbe55e9da89be2da60224442ee2e02f81c6ef62fc3b3e868070a511739",
          "transactionIndex": "0x0",
          "logIndex": "0x1",
          "removed": false
        },
        {
          "address": "0x4515aec1be9b3920febb8083b26ee41dcc5f1e71",
          "topics": [
            "0x14c77a4940f0fd33a03d9d1bc70b9654df868a589f3727f7b905837e4e63a754",
            "0x0000000000000000000000000000000000000000000000000000000000000009",
            "0x0000000000000000000000007abedc832254daa2032505e33a8dd325841d6f2d"
          ],
          "data": "0x000000000000000000000000000000000000000000000000000000001dcd65000000000000000000000000000000000000000000000000000000000001312d0000000000000000000000000000000000000000000000000000000000000000059e732d739af620fe27e01bd0f54de4362fea2320cb1b17b11983826ec37cdfdf000000000000000000000000000000000000000000000000000000000000014000000000000000000000000000000000000000000000000000000000000001c0000000000000000000000000000000000000000000000000000000000000020000000000000000000000000000000000000000000000000000000000000002400000000000000000000000000000000000000000000000000000000068f75766000000000000000000000000000000000000000000000000000000000000003c000000000000000000000000000000000000000000000000000000000000005644696420666c69676874204b413930392066726f6d2050555320746f204e5254207363686564756c6564206174203137363130343032333020617272697665206c61746572207468616e203630206d696e757465733f0000000000000000000000000000000000000000000000000000000000000000000000000000000000054b413930390000000000000000000000000000000000000000000000000000000000000000000000000000000000000000000000000000000000000000000003505553000000000000000000000000000000000000000000000000000000000000000000000000000000000000000000000000000000000000000000000000034e52540000000000000000000000000000000000000000000000000000000000",
          "blockHash": "0x44fe8a4a5b51649253f4894157c1310e06aa7afc39a6ada44dba2dfd8c4bce21",
          "blockNumber": "0xbbb1740",
          "transactionHash": "0xc7bcb0fbe55e9da89be2da60224442ee2e02f81c6ef62fc3b3e868070a511739",
          "transactionIndex": "0x0",
          "logIndex": "0x2",
          "removed": false
        }
      ],
      "logsBloom": "0x00000000001008000000000000000000000100010000000000000000000000100000000000000000000000000000004000000000000000000000000000200000000000000000000000000008000000000004000000000002080000000000000000000000080000000000000000000000000004000000800004000010000008000001000000000000000000000000000000001000000000000080000000000000000000000000000000000000000001000000000000000000000000040002000000004002001000000000000000000000000000000000000000800000000000000000000000000000800000000000000000004000000000000000000000800000",
      "type": "0x2",
      "transactionHash": "0xc7bcb0fbe55e9da89be2da60224442ee2e02f81c6ef62fc3b3e868070a511739",
      "transactionIndex": "0x0",
      "blockHash": "0x44fe8a4a5b51649253f4894157c1310e06aa7afc39a6ada44dba2dfd8c4bce21",
      "blockNumber": "0xbbb1740",
      "gasUsed": "0x44a7f",
      "effectiveGasPrice": "0x5d21dba01",
      "from": "0x7abedc832254daa2032505e33a8dd325841d6f2d",
      "to": "0x4515aec1be9b3920febb8083b26ee41dcc5f1e71",
      "contractAddress": null
    },
    {
      "status": "0x1",
      "cumulativeGasUsed": "0x44a7f",
      "logs": [
        {
          "address": "0x980c1f069ad090b18219e9411d72558a294a32cd",
          "topics": [
            "0xddf252ad1be2c89b69c2b068fc378daa952ba7f163c4a11628f55a4df523b3ef",
            "0x0000000000000000000000007abedc832254daa2032505e33a8dd325841d6f2d",
            "0x0000000000000000000000004515aec1be9b3920febb8083b26ee41dcc5f1e71"
          ],
          "data": "0x000000000000000000000000000000000000000000000000000000001dcd6500",
          "blockHash": "0x14e75b085abb7b57a921403aeced9b8794d4f2fc64c8c4164d63fd8c161cc415",
          "blockNumber": "0xbbb1741",
          "transactionHash": "0x0222a7a70f53bf6baa4d8f9705eb3863dfd1699cc783ac82ca2dc9663dc20dcd",
          "transactionIndex": "0x0",
          "logIndex": "0x0",
          "removed": false
        },
        {
          "address": "0xead455896b2584a7738b85c3c984ceebf910f766",
          "topics": [
            "0x6a448d71fd65dbbbba6f99eb68402f18062b2c12113f2c7b6569230fa1f8a2bf",
            "0x9604ea7676bb86ef59df2fc254603bb8a85d9d760098e539bbb8fd2725147633",
            "0x0000000000000000000000004515aec1be9b3920febb8083b26ee41dcc5f1e71"
          ],
          "data": "0x000000000000000000000000000000000000000000000000000000000000000000000000000000000000000000000000000000000000000000000000000001000000000000000000000000000000000000000000000000000000000000000000000000000000000000000000000000000000000000000000000000000000000000000000000000000000000000000000000000000000000000000000000000000000000000000000000000000000000000000000000000000000000000000000777b0962da29e6e6e0e46437ed165df30232e113c518eb478fc3ee8072a768480000000000000000000000000000000000000000000000000000000068cfca89000000000000000000000000000000000000000000000000000000000000005644696420666c69676874204b413131302066726f6d2049434e20746f20434447207363686564756c6564206174203137363133383538333020617272697665206c61746572207468616e203930206d696e757465733f00000000000000000000",
          "blockHash": "0x14e75b085abb7b57a921403aeced9b8794d4f2fc64c8c4164d63fd8c161cc415",
          "blockNumber": "0xbbb1741",
          "transactionHash": "0x0222a7a70f53bf6baa4d8f9705eb3863dfd1699cc783ac82ca2dc9663dc20dcd",
          "transactionIndex": "0x0",
          "logIndex": "0x1",
          "removed": false
        },
        {
          "address": "0x4515aec1be9b3920febb8083b26ee41dcc5f1e71",
          "topics": [
            "0x14c77a4940f0fd33a03d9d1bc70b9654df868a589f3727f7b905837e4e63a754",
            "0x000000000000000000000000000000000000000000000000000000000000000a",
            "0x0000000000000000000000007abedc832254daa2032505e33a8dd325841d6f2d"
          ],
          "data": "0x000000000000000000000000000000000000000000000000000000001dcd65000000000000000000000000000000000000000000000000000000000001312d0000000000000000000000000000000000000000000000000000000000000000059604ea7676bb86ef59df2fc254603bb8a85d9d760098e539bbb8fd2725147633000000000000000000000000000000000000000000000000000000000000014000000000000000000000000000000000000000000000000000000000000001c0000000000000000000000000000000000000000000000000000000000000020000000000000000000000000000000000000000000000000000000000000002400000000000000000000000000000000000000000000000000000000068fc9d66000000000000000000000000000000000000000000000000000000000000005a000000000000000000000000000000000000000000000000000000000000005644696420666c69676874204b413131302066726f6d2049434e20746f20434447207363686564756c6564206174203137363133383538333020617272697665206c61746572207468616e203930206d696e757465733f0000000000000000000000000000000000000000000000000000000000000000000000000000000000054b41313130000000000000000000000000000000000000000000000000000000000000000000000000000000000000000000000000000000000000000000000349434e000000000000000000000000000000000000000000000000000000000000000000000000000000000000000000000000000000000000000000000000034344470000000000000000000000000000000000000000000000000000000000",
          "blockHash": "0x14e75b085abb7b57a921403aeced9b8794d4f2fc64c8c4164d63fd8c161cc415",
          "blockNumber": "0xbbb1741",
          "transactionHash": "0x0222a7a70f53bf6baa4d8f9705eb3863dfd1699cc783ac82ca2dc9663dc20dcd",
          "transactionIndex": "0x0",
          "logIndex": "0x2",
          "removed": false
        }
      ],
      "logsBloom": "0x00000000001008000000000000000000000100000000000000000000000000100000000000000000000000000000004000000000040000000020000000000000000000000000000000000008000000000004000000000002080000000000000000000000000000000000000000000000000004000000800004000010000008000001000000000000010000000000000000000000000000000080000000080000000000008000000000000000000001000000000000000000000000040002000000004002001000000000000000000000000000000000000000800000000000001000000000000000000000000000000000004000000000000000000000000000",
      "type": "0x2",
      "transactionHash": "0x0222a7a70f53bf6baa4d8f9705eb3863dfd1699cc783ac82ca2dc9663dc20dcd",
      "transactionIndex": "0x0",
      "blockHash": "0x14e75b085abb7b57a921403aeced9b8794d4f2fc64c8c4164d63fd8c161cc415",
      "blockNumber": "0xbbb1741",
      "gasUsed": "0x44a7f",
      "effectiveGasPrice": "0x5d21dba01",
      "from": "0x7abedc832254daa2032505e33a8dd325841d6f2d",
      "to": "0x4515aec1be9b3920febb8083b26ee41dcc5f1e71",
      "contractAddress": null
    },
    {
      "status": "0x1",
      "cumulativeGasUsed": "0x44a7f",
      "logs": [
        {
          "address": "0x980c1f069ad090b18219e9411d72558a294a32cd",
          "topics": [
            "0xddf252ad1be2c89b69c2b068fc378daa952ba7f163c4a11628f55a4df523b3ef",
            "0x0000000000000000000000007abedc832254daa2032505e33a8dd325841d6f2d",
            "0x0000000000000000000000004515aec1be9b3920febb8083b26ee41dcc5f1e71"
          ],
          "data": "0x000000000000000000000000000000000000000000000000000000001dcd6500",
          "blockHash": "0xaae5a734c6f2bccb60398af8eafe0ce9db231a2e554c040a31be2bdab859fc86",
          "blockNumber": "0xbbb1743",
          "transactionHash": "0x2664226c3afefa71898da34c6703630b290fd69f974473668e81cc4658966e92",
          "transactionIndex": "0x0",
          "logIndex": "0x0",
          "removed": false
        },
        {
          "address": "0xead455896b2584a7738b85c3c984ceebf910f766",
          "topics": [
            "0x6a448d71fd65dbbbba6f99eb68402f18062b2c12113f2c7b6569230fa1f8a2bf",
            "0x0c75a85829c63f4a3abd4daf71f5c6f38181001763ea1e52fd429ee0b300e3d5",
            "0x0000000000000000000000004515aec1be9b3920febb8083b26ee41dcc5f1e71"
          ],
          "data": "0x000000000000000000000000000000000000000000000000000000000000000000000000000000000000000000000000000000000000000000000000000001000000000000000000000000000000000000000000000000000000000000000000000000000000000000000000000000000000000000000000000000000000000000000000000000000000000000000000000000000000000000000000000000000000000000000000000000000000000000000000000000000000000000000000df0b57364aadef30a085812f7e39132de73ebbe375ad98ecf72dbcc0e535e9850000000000000000000000000000000000000000000000000000000068cfca8b000000000000000000000000000000000000000000000000000000000000005644696420666c69676874204b413131312066726f6d2049434e20746f20465241207363686564756c6564206174203137363137333134333020617272697665206c61746572207468616e203630206d696e757465733f00000000000000000000",
          "blockHash": "0xaae5a734c6f2bccb60398af8eafe0ce9db231a2e554c040a31be2bdab859fc86",
          "blockNumber": "0xbbb1743",
          "transactionHash": "0x2664226c3afefa71898da34c6703630b290fd69f974473668e81cc4658966e92",
          "transactionIndex": "0x0",
          "logIndex": "0x1",
          "removed": false
        },
        {
          "address": "0x4515aec1be9b3920febb8083b26ee41dcc5f1e71",
          "topics": [
            "0x14c77a4940f0fd33a03d9d1bc70b9654df868a589f3727f7b905837e4e63a754",
            "0x000000000000000000000000000000000000000000000000000000000000000b",
            "0x0000000000000000000000007abedc832254daa2032505e33a8dd325841d6f2d"
          ],
          "data": "0x000000000000000000000000000000000000000000000000000000001dcd65000000000000000000000000000000000000000000000000000000000001312d0000000000000000000000000000000000000000000000000000000000000000050c75a85829c63f4a3abd4daf71f5c6f38181001763ea1e52fd429ee0b300e3d5000000000000000000000000000000000000000000000000000000000000014000000000000000000000000000000000000000000000000000000000000001c000000000000000000000000000000000000000000000000000000000000002000000000000000000000000000000000000000000000000000000000000000240000000000000000000000000000000000000000000000000000000006901e366000000000000000000000000000000000000000000000000000000000000003c000000000000000000000000000000000000000000000000000000000000005644696420666c69676874204b413131312066726f6d2049434e20746f20465241207363686564756c6564206174203137363137333134333020617272697665206c61746572207468616e203630206d696e757465733f0000000000000000000000000000000000000000000000000000000000000000000000000000000000054b41313131000000000000000000000000000000000000000000000000000000000000000000000000000000000000000000000000000000000000000000000349434e000000000000000000000000000000000000000000000000000000000000000000000000000000000000000000000000000000000000000000000000034652410000000000000000000000000000000000000000000000000000000000",
          "blockHash": "0xaae5a734c6f2bccb60398af8eafe0ce9db231a2e554c040a31be2bdab859fc86",
          "blockNumber": "0xbbb1743",
          "transactionHash": "0x2664226c3afefa71898da34c6703630b290fd69f974473668e81cc4658966e92",
          "transactionIndex": "0x0",
          "logIndex": "0x2",
          "removed": false
        }
      ],
      "logsBloom": "0x00000000001008000000004000000000000100000000000000000000000000100000000000010000000000000000004000000000000000000000000000000000000000000000000000000008000000000004000000000002080000000000000000000000000000000000000010000000000004000000800004000010000008000001000000000000000000000000000000000000000000000080000000000000000000000000000000000000000001000000000000000000000000040002000000004002001000000000000000000000002000000000000000800000000000000000000000000000000000000000000000004000000000040001000000000000",
      "type": "0x2",
      "transactionHash": "0x2664226c3afefa71898da34c6703630b290fd69f974473668e81cc4658966e92",
      "transactionIndex": "0x0",
      "blockHash": "0xaae5a734c6f2bccb60398af8eafe0ce9db231a2e554c040a31be2bdab859fc86",
      "blockNumber": "0xbbb1743",
      "gasUsed": "0x44a7f",
      "effectiveGasPrice": "0x5d21dba01",
      "from": "0x7abedc832254daa2032505e33a8dd325841d6f2d",
      "to": "0x4515aec1be9b3920febb8083b26ee41dcc5f1e71",
      "contractAddress": null
    },
    {
      "status": "0x1",
      "cumulativeGasUsed": "0x44a7f",
      "logs": [
        {
          "address": "0x980c1f069ad090b18219e9411d72558a294a32cd",
          "topics": [
            "0xddf252ad1be2c89b69c2b068fc378daa952ba7f163c4a11628f55a4df523b3ef",
            "0x0000000000000000000000007abedc832254daa2032505e33a8dd325841d6f2d",
            "0x0000000000000000000000004515aec1be9b3920febb8083b26ee41dcc5f1e71"
          ],
          "data": "0x000000000000000000000000000000000000000000000000000000001dcd6500",
          "blockHash": "0x74792f6a65f99d32236b62704439543987cc5e6d872a3aa4de5b032b01c833d8",
          "blockNumber": "0xbbb1745",
          "transactionHash": "0xcea81c570ef780fbfdab0e896c4e38828cc0c7fbd56106ab6b638cce3604fae0",
          "transactionIndex": "0x0",
          "logIndex": "0x0",
          "removed": false
        },
        {
          "address": "0xead455896b2584a7738b85c3c984ceebf910f766",
          "topics": [
            "0x6a448d71fd65dbbbba6f99eb68402f18062b2c12113f2c7b6569230fa1f8a2bf",
            "0xea0d7159c2fa8a7adaa0984cc99c00bc1b0d85b70bae0e0438beed11d8b4645c",
            "0x0000000000000000000000004515aec1be9b3920febb8083b26ee41dcc5f1e71"
          ],
          "data": "0x000000000000000000000000000000000000000000000000000000000000000000000000000000000000000000000000000000000000000000000000000001000000000000000000000000000000000000000000000000000000000000000000000000000000000000000000000000000000000000000000000000000000000000000000000000000000000000000000000000000000000000000000000000000000000000000000000000000000000000000000000000000000000000000000c7b2dfd2de0908a8b5abc64fa37b5c0bcfa4ab69e289a1659ce6ac5ccccfe2360000000000000000000000000000000000000000000000000000000068cfca8d000000000000000000000000000000000000000000000000000000000000005644696420666c69676874204b413131322066726f6d2049434e20746f204c4852207363686564756c6564206174203137363230373730333020617272697665206c61746572207468616e203930206d696e757465733f00000000000000000000",
          "blockHash": "0x74792f6a65f99d32236b62704439543987cc5e6d872a3aa4de5b032b01c833d8",
          "blockNumber": "0xbbb1745",
          "transactionHash": "0xcea81c570ef780fbfdab0e896c4e38828cc0c7fbd56106ab6b638cce3604fae0",
          "transactionIndex": "0x0",
          "logIndex": "0x1",
          "removed": false
        },
        {
          "address": "0x4515aec1be9b3920febb8083b26ee41dcc5f1e71",
          "topics": [
            "0x14c77a4940f0fd33a03d9d1bc70b9654df868a589f3727f7b905837e4e63a754",
            "0x000000000000000000000000000000000000000000000000000000000000000c",
            "0x0000000000000000000000007abedc832254daa2032505e33a8dd325841d6f2d"
          ],
          "data": "0x000000000000000000000000000000000000000000000000000000001dcd65000000000000000000000000000000000000000000000000000000000001312d000000000000000000000000000000000000000000000000000000000000000005ea0d7159c2fa8a7adaa0984cc99c00bc1b0d85b70bae0e0438beed11d8b4645c000000000000000000000000000000000000000000000000000000000000014000000000000000000000000000000000000000000000000000000000000001c0000000000000000000000000000000000000000000000000000000000000020000000000000000000000000000000000000000000000000000000000000002400000000000000000000000000000000000000000000000000000000069072966000000000000000000000000000000000000000000000000000000000000005a000000000000000000000000000000000000000000000000000000000000005644696420666c69676874204b413131322066726f6d2049434e20746f204c4852207363686564756c6564206174203137363230373730333020617272697665206c61746572207468616e203930206d696e757465733f0000000000000000000000000000000000000000000000000000000000000000000000000000000000054b41313132000000000000000000000000000000000000000000000000000000000000000000000000000000000000000000000000000000000000000000000349434e000000000000000000000000000000000000000000000000000000000000000000000000000000000000000000000000000000000000000000000000034c48520000000000000000000000000000000000000000000000000000000000",
          "blockHash": "0x74792f6a65f99d32236b62704439543987cc5e6d872a3aa4de5b032b01c833d8",
          "blockNumber": "0xbbb1745",
          "transactionHash": "0xcea81c570ef780fbfdab0e896c4e38828cc0c7fbd56106ab6b638cce3604fae0",
          "transactionIndex": "0x0",
          "logIndex": "0x2",
          "removed": false
        }
      ],
      "logsBloom": "0x0800000000100800000000000000000000010200000000000000000000000010000000000000020000000000000000400000000000000000000000000000000000000000000000000000000a000000000004000008000002080000000000000000000000000000000000000000000000000004000000800004000010000008000001000000000000000000000000000000000000000000000080000000000000000000000000000000000000000001000000000000000000000000040002000000004002001000000000000000000000000000000000000000800000000000200000000000000000000000000000000000004000000000000000000000000000",
      "type": "0x2",
      "transactionHash": "0xcea81c570ef780fbfdab0e896c4e38828cc0c7fbd56106ab6b638cce3604fae0",
      "transactionIndex": "0x0",
      "blockHash": "0x74792f6a65f99d32236b62704439543987cc5e6d872a3aa4de5b032b01c833d8",
      "blockNumber": "0xbbb1745",
      "gasUsed": "0x44a7f",
      "effectiveGasPrice": "0x5d21dba01",
      "from": "0x7abedc832254daa2032505e33a8dd325841d6f2d",
      "to": "0x4515aec1be9b3920febb8083b26ee41dcc5f1e71",
      "contractAddress": null
    },
    {
      "status": "0x1",
      "cumulativeGasUsed": "0x44a7f",
      "logs": [
        {
          "address": "0x980c1f069ad090b18219e9411d72558a294a32cd",
          "topics": [
            "0xddf252ad1be2c89b69c2b068fc378daa952ba7f163c4a11628f55a4df523b3ef",
            "0x0000000000000000000000007abedc832254daa2032505e33a8dd325841d6f2d",
            "0x0000000000000000000000004515aec1be9b3920febb8083b26ee41dcc5f1e71"
          ],
          "data": "0x000000000000000000000000000000000000000000000000000000001dcd6500",
          "blockHash": "0xf3c0057922380196a8a14e937910e3774b582bdb3b3f6a04a68c4536f8b8b91d",
          "blockNumber": "0xbbb1747",
          "transactionHash": "0x89dad7358665c538ef0df5d3c27bf52886955e26dae8434e347bb79e62da291a",
          "transactionIndex": "0x0",
          "logIndex": "0x0",
          "removed": false
        },
        {
          "address": "0xead455896b2584a7738b85c3c984ceebf910f766",
          "topics": [
            "0x6a448d71fd65dbbbba6f99eb68402f18062b2c12113f2c7b6569230fa1f8a2bf",
            "0x7a29254ded261f9ff580640be6c089cdc1ba6bb5864727bc7a3e00e9581fe4d7",
            "0x0000000000000000000000004515aec1be9b3920febb8083b26ee41dcc5f1e71"
          ],
          "data": "0x000000000000000000000000000000000000000000000000000000000000000000000000000000000000000000000000000000000000000000000000000001000000000000000000000000000000000000000000000000000000000000000000000000000000000000000000000000000000000000000000000000000000000000000000000000000000000000000000000000000000000000000000000000000000000000000000000000000000000000000000000000000000000000000000abf6125f3c3ec0fcd267ef04f929d726a4b50dd04ec9b51057a1e31be920cc3f0000000000000000000000000000000000000000000000000000000068cfca8f000000000000000000000000000000000000000000000000000000000000005644696420666c69676874204b413131332066726f6d2049434e20746f20535944207363686564756c6564206174203137363234323236333020617272697665206c61746572207468616e203435206d696e757465733f00000000000000000000",
          "blockHash": "0xf3c0057922380196a8a14e937910e3774b582bdb3b3f6a04a68c4536f8b8b91d",
          "blockNumber": "0xbbb1747",
          "transactionHash": "0x89dad7358665c538ef0df5d3c27bf52886955e26dae8434e347bb79e62da291a",
          "transactionIndex": "0x0",
          "logIndex": "0x1",
          "removed": false
        },
        {
          "address": "0x4515aec1be9b3920febb8083b26ee41dcc5f1e71",
          "topics": [
            "0x14c77a4940f0fd33a03d9d1bc70b9654df868a589f3727f7b905837e4e63a754",
            "0x000000000000000000000000000000000000000000000000000000000000000d",
            "0x0000000000000000000000007abedc832254daa2032505e33a8dd325841d6f2d"
          ],
          "data": "0x000000000000000000000000000000000000000000000000000000001dcd65000000000000000000000000000000000000000000000000000000000001312d0000000000000000000000000000000000000000000000000000000000000000057a29254ded261f9ff580640be6c089cdc1ba6bb5864727bc7a3e00e9581fe4d7000000000000000000000000000000000000000000000000000000000000014000000000000000000000000000000000000000000000000000000000000001c00000000000000000000000000000000000000000000000000000000000000200000000000000000000000000000000000000000000000000000000000000024000000000000000000000000000000000000000000000000000000000690c6f66000000000000000000000000000000000000000000000000000000000000002d000000000000000000000000000000000000000000000000000000000000005644696420666c69676874204b413131332066726f6d2049434e20746f20535944207363686564756c6564206174203137363234323236333020617272697665206c61746572207468616e203435206d696e757465733f0000000000000000000000000000000000000000000000000000000000000000000000000000000000054b41313133000000000000000000000000000000000000000000000000000000000000000000000000000000000000000000000000000000000000000000000349434e000000000000000000000000000000000000000000000000000000000000000000000000000000000000000000000000000000000000000000000000035359440000000000000000000000000000000000000000000000000000000000",
          "blockHash": "0xf3c0057922380196a8a14e937910e3774b582bdb3b3f6a04a68c4536f8b8b91d",
          "blockNumber": "0xbbb1747",
          "transactionHash": "0x89dad7358665c538ef0df5d3c27bf52886955e26dae8434e347bb79e62da291a",
          "transactionIndex": "0x0",
          "logIndex": "0x2",
          "removed": false
        }
      ],
      "logsBloom": "0x00000000001008000040000000000000000100000000000000000000000000100000000000000000000000000000004000000000000000000000000000000800000000000000400000000008000000000006000000000002080000000000000000000000000000000000000000000000000004000000800004000010000008000001000000000000000000000000000000000000000000000080000000000000000000000000000000000000000001000000000000000000000000040002000000004002001000000000000000000000000000000000000000800000000000020010000000000000000000000000000000004000000000000000000000000000",
      "type": "0x2",
      "transactionHash": "0x89dad7358665c538ef0df5d3c27bf52886955e26dae8434e347bb79e62da291a",
      "transactionIndex": "0x0",
      "blockHash": "0xf3c0057922380196a8a14e937910e3774b582bdb3b3f6a04a68c4536f8b8b91d",
      "blockNumber": "0xbbb1747",
      "gasUsed": "0x44a7f",
      "effectiveGasPrice": "0x5d21dba01",
      "from": "0x7abedc832254daa2032505e33a8dd325841d6f2d",
      "to": "0x4515aec1be9b3920febb8083b26ee41dcc5f1e71",
      "contractAddress": null
    },
    {
      "status": "0x1",
      "cumulativeGasUsed": "0x44a7f",
      "logs": [
        {
          "address": "0x980c1f069ad090b18219e9411d72558a294a32cd",
          "topics": [
            "0xddf252ad1be2c89b69c2b068fc378daa952ba7f163c4a11628f55a4df523b3ef",
            "0x0000000000000000000000007abedc832254daa2032505e33a8dd325841d6f2d",
            "0x0000000000000000000000004515aec1be9b3920febb8083b26ee41dcc5f1e71"
          ],
          "data": "0x000000000000000000000000000000000000000000000000000000001dcd6500",
          "blockHash": "0x50fe7c71fee5627cc182eb18c5b39220282c012018ec6cc70bf61bfc99abe357",
          "blockNumber": "0xbbb1749",
          "transactionHash": "0x0b2965656312e1a6e6b40ffc99d98537fd91327494512918ce733120f8217ef9",
          "transactionIndex": "0x0",
          "logIndex": "0x0",
          "removed": false
        },
        {
          "address": "0xead455896b2584a7738b85c3c984ceebf910f766",
          "topics": [
            "0x6a448d71fd65dbbbba6f99eb68402f18062b2c12113f2c7b6569230fa1f8a2bf",
            "0xd0f0e260822193c8abff50bfe0b6d123f04b7e93a03ac2a4c17ee1e821519e4d",
            "0x0000000000000000000000004515aec1be9b3920febb8083b26ee41dcc5f1e71"
          ],
          "data": "0x0000000000000000000000000000000000000000000000000000000000000000000000000000000000000000000000000000000000000000000000000000010000000000000000000000000000000000000000000000000000000000000000000000000000000000000000000000000000000000000000000000000000000000000000000000000000000000000000000000000000000000000000000000000000000000000000000000000000000000000000000000000000000000000000009b702156cc429dca4798e2b51787877e628fffe306c0dbd2a8f230e65251d70e0000000000000000000000000000000000000000000000000000000068cfca91000000000000000000000000000000000000000000000000000000000000005644696420666c69676874204b413131342066726f6d2049434e20746f204d454c207363686564756c6564206174203137363237363832333020617272697665206c61746572207468616e203630206d696e757465733f00000000000000000000",
          "blockHash": "0x50fe7c71fee5627cc182eb18c5b39220282c012018ec6cc70bf61bfc99abe357",
          "blockNumber": "0xbbb1749",
          "transactionHash": "0x0b2965656312e1a6e6b40ffc99d98537fd91327494512918ce733120f8217ef9",
          "transactionIndex": "0x0",
          "logIndex": "0x1",
          "removed": false
        },
        {
          "address": "0x4515aec1be9b3920febb8083b26ee41dcc5f1e71",
          "topics": [
            "0x14c77a4940f0fd33a03d9d1bc70b9654df868a589f3727f7b905837e4e63a754",
            "0x000000000000000000000000000000000000000000000000000000000000000e",
            "0x0000000000000000000000007abedc832254daa2032505e33a8dd325841d6f2d"
          ],
          "data": "0x000000000000000000000000000000000000000000000000000000001dcd65000000000000000000000000000000000000000000000000000000000001312d000000000000000000000000000000000000000000000000000000000000000005d0f0e260822193c8abff50bfe0b6d123f04b7e93a03ac2a4c17ee1e821519e4d000000000000000000000000000000000000000000000000000000000000014000000000000000000000000000000000000000000000000000000000000001c000000000000000000000000000000000000000000000000000000000000002000000000000000000000000000000000000000000000000000000000000000240000000000000000000000000000000000000000000000000000000006911b566000000000000000000000000000000000000000000000000000000000000003c000000000000000000000000000000000000000000000000000000000000005644696420666c69676874204b413131342066726f6d2049434e20746f204d454c207363686564756c6564206174203137363237363832333020617272697665206c61746572207468616e203630206d696e757465733f0000000000000000000000000000000000000000000000000000000000000000000000000000000000054b41313134000000000000000000000000000000000000000000000000000000000000000000000000000000000000000000000000000000000000000000000349434e000000000000000000000000000000000000000000000000000000000000000000000000000000000000000000000000000000000000000000000000034d454c0000000000000000000000000000000000000000000000000000000000",
          "blockHash": "0x50fe7c71fee5627cc182eb18c5b39220282c012018ec6cc70bf61bfc99abe357",
          "blockNumber": "0xbbb1749",
          "transactionHash": "0x0b2965656312e1a6e6b40ffc99d98537fd91327494512918ce733120f8217ef9",
          "transactionIndex": "0x0",
          "logIndex": "0x2",
          "removed": false
        }
      ],
      "logsBloom": "0x00000000001008000000000000000000000100000000000000000000000000100001000000000000000000000000004000000000000000000000000000000000000000000000000800000008000000000004000000000002080000000000000000000000000000000000000000000000000004000000800004000010000008000001000000000000000000000000000008000000000000000080000000000000000000000000000000000000000001000000000000000020000000040002000000004002001000000000000000000002000000000000000000800000000000000100000000000000000000000000000000004000000000000000000000000000",
      "type": "0x2",
      "transactionHash": "0x0b2965656312e1a6e6b40ffc99d98537fd91327494512918ce733120f8217ef9",
      "transactionIndex": "0x0",
      "blockHash": "0x50fe7c71fee5627cc182eb18c5b39220282c012018ec6cc70bf61bfc99abe357",
      "blockNumber": "0xbbb1749",
      "gasUsed": "0x44a7f",
      "effectiveGasPrice": "0x5d21dba01",
      "from": "0x7abedc832254daa2032505e33a8dd325841d6f2d",
      "to": "0x4515aec1be9b3920febb8083b26ee41dcc5f1e71",
      "contractAddress": null
    },
    {
      "status": "0x1",
      "cumulativeGasUsed": "0x44a7f",
      "logs": [
        {
          "address": "0x980c1f069ad090b18219e9411d72558a294a32cd",
          "topics": [
            "0xddf252ad1be2c89b69c2b068fc378daa952ba7f163c4a11628f55a4df523b3ef",
            "0x0000000000000000000000007abedc832254daa2032505e33a8dd325841d6f2d",
            "0x0000000000000000000000004515aec1be9b3920febb8083b26ee41dcc5f1e71"
          ],
          "data": "0x000000000000000000000000000000000000000000000000000000001dcd6500",
          "blockHash": "0xfdc17933f6257209a364aa9b3bbed9aec9140e358279d376b5bfd442fb1fbbdc",
          "blockNumber": "0xbbb174b",
          "transactionHash": "0x6147f2bb3e06f71bbfa773f87969fcf567d1dbbe7ae0a46dce3c426e6043e017",
          "transactionIndex": "0x0",
          "logIndex": "0x0",
          "removed": false
        },
        {
          "address": "0xead455896b2584a7738b85c3c984ceebf910f766",
          "topics": [
            "0x6a448d71fd65dbbbba6f99eb68402f18062b2c12113f2c7b6569230fa1f8a2bf",
            "0xbb6f7c2cee2221aa2f38f017a9247c906bf78db197be63953844d4e20a8eeb08",
            "0x0000000000000000000000004515aec1be9b3920febb8083b26ee41dcc5f1e71"
          ],
          "data": "0x000000000000000000000000000000000000000000000000000000000000000000000000000000000000000000000000000000000000000000000000000001000000000000000000000000000000000000000000000000000000000000000000000000000000000000000000000000000000000000000000000000000000000000000000000000000000000000000000000000000000000000000000000000000000000000000000000000000000000000000000000000000000000000000000441ad3de04aaa55b0a740923610b034d0628a78007347e0657cc782715f65a650000000000000000000000000000000000000000000000000000000068cfca93000000000000000000000000000000000000000000000000000000000000005644696420666c69676874204b413131352066726f6d2049434e20746f20445842207363686564756c6564206174203137363331313338333020617272697665206c61746572207468616e203435206d696e757465733f00000000000000000000",
          "blockHash": "0xfdc17933f6257209a364aa9b3bbed9aec9140e358279d376b5bfd442fb1fbbdc",
          "blockNumber": "0xbbb174b",
          "transactionHash": "0x6147f2bb3e06f71bbfa773f87969fcf567d1dbbe7ae0a46dce3c426e6043e017",
          "transactionIndex": "0x0",
          "logIndex": "0x1",
          "removed": false
        },
        {
          "address": "0x4515aec1be9b3920febb8083b26ee41dcc5f1e71",
          "topics": [
            "0x14c77a4940f0fd33a03d9d1bc70b9654df868a589f3727f7b905837e4e63a754",
            "0x000000000000000000000000000000000000000000000000000000000000000f",
            "0x0000000000000000000000007abedc832254daa2032505e33a8dd325841d6f2d"
          ],
          "data": "0x000000000000000000000000000000000000000000000000000000001dcd65000000000000000000000000000000000000000000000000000000000001312d000000000000000000000000000000000000000000000000000000000000000005bb6f7c2cee2221aa2f38f017a9247c906bf78db197be63953844d4e20a8eeb08000000000000000000000000000000000000000000000000000000000000014000000000000000000000000000000000000000000000000000000000000001c000000000000000000000000000000000000000000000000000000000000002000000000000000000000000000000000000000000000000000000000000000240000000000000000000000000000000000000000000000000000000006916fb66000000000000000000000000000000000000000000000000000000000000002d000000000000000000000000000000000000000000000000000000000000005644696420666c69676874204b413131352066726f6d2049434e20746f20445842207363686564756c6564206174203137363331313338333020617272697665206c61746572207468616e203435206d696e757465733f0000000000000000000000000000000000000000000000000000000000000000000000000000000000054b41313135000000000000000000000000000000000000000000000000000000000000000000000000000000000000000000000000000000000000000000000349434e000000000000000000000000000000000000000000000000000000000000000000000000000000000000000000000000000000000000000000000000034458420000000000000000000000000000000000000000000000000000000000",
          "blockHash": "0xfdc17933f6257209a364aa9b3bbed9aec9140e358279d376b5bfd442fb1fbbdc",
          "blockNumber": "0xbbb174b",
          "transactionHash": "0x6147f2bb3e06f71bbfa773f87969fcf567d1dbbe7ae0a46dce3c426e6043e017",
          "transactionIndex": "0x0",
          "logIndex": "0x2",
          "removed": false
        }
      ],
      "logsBloom": "0x00000000001008000000000002000000000100000000000000000000000000100000000000000000000000000008004000000000000000000000000000000000000000000000000000000008000000000004000000000002080000000002000000000000000000000000000000000000000004000000800004000010000008000001000000000800000000000000000000000000000000000080000000000000000000000000000000000000000001000000000000000000000000040002000000004002001000000000000000000002000000000000000000800000000000000000000200000000000000000000000000004000000000000000000000000000",
      "type": "0x2",
      "transactionHash": "0x6147f2bb3e06f71bbfa773f87969fcf567d1dbbe7ae0a46dce3c426e6043e017",
      "transactionIndex": "0x0",
      "blockHash": "0xfdc17933f6257209a364aa9b3bbed9aec9140e358279d376b5bfd442fb1fbbdc",
      "blockNumber": "0xbbb174b",
      "gasUsed": "0x44a7f",
      "effectiveGasPrice": "0x5d21dba01",
      "from": "0x7abedc832254daa2032505e33a8dd325841d6f2d",
      "to": "0x4515aec1be9b3920febb8083b26ee41dcc5f1e71",
      "contractAddress": null
    },
    {
      "status": "0x1",
      "cumulativeGasUsed": "0x44a7f",
      "logs": [
        {
          "address": "0x980c1f069ad090b18219e9411d72558a294a32cd",
          "topics": [
            "0xddf252ad1be2c89b69c2b068fc378daa952ba7f163c4a11628f55a4df523b3ef",
            "0x0000000000000000000000007abedc832254daa2032505e33a8dd325841d6f2d",
            "0x0000000000000000000000004515aec1be9b3920febb8083b26ee41dcc5f1e71"
          ],
          "data": "0x000000000000000000000000000000000000000000000000000000001dcd6500",
          "blockHash": "0x7fba463b43c7bef6d1bee5b9c6aa96f1ed6ce8117c0ec1220e87d743f8f78750",
          "blockNumber": "0xbbb174c",
          "transactionHash": "0x737b4493fb03f53573e2df8fba86d2c0cbf40c86d3ede6c96c1bcf4cc49c12e4",
          "transactionIndex": "0x0",
          "logIndex": "0x0",
          "removed": false
        },
        {
          "address": "0xead455896b2584a7738b85c3c984ceebf910f766",
          "topics": [
            "0x6a448d71fd65dbbbba6f99eb68402f18062b2c12113f2c7b6569230fa1f8a2bf",
            "0x11f707b8ce67f324a2464da1311a3bb5814b0ff39edc75c3d8004f170996b511",
            "0x0000000000000000000000004515aec1be9b3920febb8083b26ee41dcc5f1e71"
          ],
          "data": "0x000000000000000000000000000000000000000000000000000000000000000000000000000000000000000000000000000000000000000000000000000001000000000000000000000000000000000000000000000000000000000000000000000000000000000000000000000000000000000000000000000000000000000000000000000000000000000000000000000000000000000000000000000000000000000000000000000000000000000000000000000000000000000000000000c5c301688ef9d219c3885f3733358721c776c74862986024f52ad86d188ef0d00000000000000000000000000000000000000000000000000000000068cfca94000000000000000000000000000000000000000000000000000000000000005644696420666c69676874204b413131362066726f6d2049434e20746f20444f48207363686564756c6564206174203137363334353934333020617272697665206c61746572207468616e203330206d696e757465733f00000000000000000000",
          "blockHash": "0x7fba463b43c7bef6d1bee5b9c6aa96f1ed6ce8117c0ec1220e87d743f8f78750",
          "blockNumber": "0xbbb174c",
          "transactionHash": "0x737b4493fb03f53573e2df8fba86d2c0cbf40c86d3ede6c96c1bcf4cc49c12e4",
          "transactionIndex": "0x0",
          "logIndex": "0x1",
          "removed": false
        },
        {
          "address": "0x4515aec1be9b3920febb8083b26ee41dcc5f1e71",
          "topics": [
            "0x14c77a4940f0fd33a03d9d1bc70b9654df868a589f3727f7b905837e4e63a754",
            "0x0000000000000000000000000000000000000000000000000000000000000010",
            "0x0000000000000000000000007abedc832254daa2032505e33a8dd325841d6f2d"
          ],
          "data": "0x000000000000000000000000000000000000000000000000000000001dcd65000000000000000000000000000000000000000000000000000000000001312d00000000000000000000000000000000000000000000000000000000000000000511f707b8ce67f324a2464da1311a3bb5814b0ff39edc75c3d8004f170996b511000000000000000000000000000000000000000000000000000000000000014000000000000000000000000000000000000000000000000000000000000001c00000000000000000000000000000000000000000000000000000000000000200000000000000000000000000000000000000000000000000000000000000024000000000000000000000000000000000000000000000000000000000691c4166000000000000000000000000000000000000000000000000000000000000001e000000000000000000000000000000000000000000000000000000000000005644696420666c69676874204b413131362066726f6d2049434e20746f20444f48207363686564756c6564206174203137363334353934333020617272697665206c61746572207468616e203330206d696e757465733f0000000000000000000000000000000000000000000000000000000000000000000000000000000000054b41313136000000000000000000000000000000000000000000000000000000000000000000000000000000000000000000000000000000000000000000000349434e00000000000000000000000000000000000000000000000000000000000000000000000000000000000000000000000000000000000000000000000003444f480000000000000000000000000000000000000000000000000000000000",
          "blockHash": "0x7fba463b43c7bef6d1bee5b9c6aa96f1ed6ce8117c0ec1220e87d743f8f78750",
          "blockNumber": "0xbbb174c",
          "transactionHash": "0x737b4493fb03f53573e2df8fba86d2c0cbf40c86d3ede6c96c1bcf4cc49c12e4",
          "transactionIndex": "0x0",
          "logIndex": "0x2",
          "removed": false
        }
      ],
      "logsBloom": "0x00000000101008000000000000000000000100000000000000000000000000100000000000000000000000000000004000000000000000000000000000000000000000000000000000000008000000000004000000000002080000000000000000000000000000000000000000000000000004000000800004000010040008000001000000000000000000000000000000000100000000000080000000000000000000000000000000000000000001000000000000000000000000040002000000004002001000000000000000000000000000000000000000800000000000000000000000000000000000000000000000004200000000000000000000000000",
      "type": "0x2",
      "transactionHash": "0x737b4493fb03f53573e2df8fba86d2c0cbf40c86d3ede6c96c1bcf4cc49c12e4",
      "transactionIndex": "0x0",
      "blockHash": "0x7fba463b43c7bef6d1bee5b9c6aa96f1ed6ce8117c0ec1220e87d743f8f78750",
      "blockNumber": "0xbbb174c",
      "gasUsed": "0x44a7f",
      "effectiveGasPrice": "0x5d21dba01",
      "from": "0x7abedc832254daa2032505e33a8dd325841d6f2d",
      "to": "0x4515aec1be9b3920febb8083b26ee41dcc5f1e71",
      "contractAddress": null
    },
    {
      "status": "0x1",
      "cumulativeGasUsed": "0x44a7f",
      "logs": [
        {
          "address": "0x980c1f069ad090b18219e9411d72558a294a32cd",
          "topics": [
            "0xddf252ad1be2c89b69c2b068fc378daa952ba7f163c4a11628f55a4df523b3ef",
            "0x0000000000000000000000007abedc832254daa2032505e33a8dd325841d6f2d",
            "0x0000000000000000000000004515aec1be9b3920febb8083b26ee41dcc5f1e71"
          ],
          "data": "0x000000000000000000000000000000000000000000000000000000001dcd6500",
          "blockHash": "0xcefe777638394a16cfd54adcd4abd2decdca0b05dacac7a6d99587ec3e67107b",
          "blockNumber": "0xbbb174e",
          "transactionHash": "0x8c3e1a298051f33c557ab8cfc44b358ee3573c6b55b327daea9510c325a9add3",
          "transactionIndex": "0x0",
          "logIndex": "0x0",
          "removed": false
        },
        {
          "address": "0xead455896b2584a7738b85c3c984ceebf910f766",
          "topics": [
            "0x6a448d71fd65dbbbba6f99eb68402f18062b2c12113f2c7b6569230fa1f8a2bf",
            "0xe50113f53bcd75400d3a422b024b242329cf01d84df0484cbf95654b7a294715",
            "0x0000000000000000000000004515aec1be9b3920febb8083b26ee41dcc5f1e71"
          ],
          "data": "0x000000000000000000000000000000000000000000000000000000000000000000000000000000000000000000000000000000000000000000000000000001000000000000000000000000000000000000000000000000000000000000000000000000000000000000000000000000000000000000000000000000000000000000000000000000000000000000000000000000000000000000000000000000000000000000000000000000000000000000000000000000000000000000000000ed6aade35ce457643e43187b2b57398a5b52c9aad4193cdbfdd24105ce4e02e30000000000000000000000000000000000000000000000000000000068cfca96000000000000000000000000000000000000000000000000000000000000005644696420666c69676874204b413131372066726f6d2049434e20746f204a464b207363686564756c6564206174203137363338303530333020617272697665206c61746572207468616e203930206d696e757465733f00000000000000000000",
          "blockHash": "0xcefe777638394a16cfd54adcd4abd2decdca0b05dacac7a6d99587ec3e67107b",
          "blockNumber": "0xbbb174e",
          "transactionHash": "0x8c3e1a298051f33c557ab8cfc44b358ee3573c6b55b327daea9510c325a9add3",
          "transactionIndex": "0x0",
          "logIndex": "0x1",
          "removed": false
        },
        {
          "address": "0x4515aec1be9b3920febb8083b26ee41dcc5f1e71",
          "topics": [
            "0x14c77a4940f0fd33a03d9d1bc70b9654df868a589f3727f7b905837e4e63a754",
            "0x0000000000000000000000000000000000000000000000000000000000000011",
            "0x0000000000000000000000007abedc832254daa2032505e33a8dd325841d6f2d"
          ],
          "data": "0x000000000000000000000000000000000000000000000000000000001dcd65000000000000000000000000000000000000000000000000000000000001312d000000000000000000000000000000000000000000000000000000000000000005e50113f53bcd75400d3a422b024b242329cf01d84df0484cbf95654b7a294715000000000000000000000000000000000000000000000000000000000000014000000000000000000000000000000000000000000000000000000000000001c0000000000000000000000000000000000000000000000000000000000000020000000000000000000000000000000000000000000000000000000000000002400000000000000000000000000000000000000000000000000000000069218766000000000000000000000000000000000000000000000000000000000000005a000000000000000000000000000000000000000000000000000000000000005644696420666c69676874204b413131372066726f6d2049434e20746f204a464b207363686564756c6564206174203137363338303530333020617272697665206c61746572207468616e203930206d696e757465733f0000000000000000000000000000000000000000000000000000000000000000000000000000000000054b41313137000000000000000000000000000000000000000000000000000000000000000000000000000000000000000000000000000000000000000000000349434e000000000000000000000000000000000000000000000000000000000000000000000000000000000000000000000000000000000000000000000000034a464b0000000000000000000000000000000000000000000000000000000000",
          "blockHash": "0xcefe777638394a16cfd54adcd4abd2decdca0b05dacac7a6d99587ec3e67107b",
          "blockNumber": "0xbbb174e",
          "transactionHash": "0x8c3e1a298051f33c557ab8cfc44b358ee3573c6b55b327daea9510c325a9add3",
          "transactionIndex": "0x0",
          "logIndex": "0x2",
          "removed": false
        }
      ],
      "logsBloom": "0x00000000001008000000000000000000200100000000000000000000000000100040000000000000000000000000004000000000000000000000000000000000000000000000000000000008000000000004000000000002080000000000000000000000000000000000000000000000000004004000800004000010000008000001000000000000000000000000000000000000000000000080000000000000000000000000000000000000000001000000000000000000000000040402000000005002001000000000000000000000000000000000000000800000000000000000000000000000000000000000000000004000000000100000000000000000",
      "type": "0x2",
      "transactionHash": "0x8c3e1a298051f33c557ab8cfc44b358ee3573c6b55b327daea9510c325a9add3",
      "transactionIndex": "0x0",
      "blockHash": "0xcefe777638394a16cfd54adcd4abd2decdca0b05dacac7a6d99587ec3e67107b",
      "blockNumber": "0xbbb174e",
      "gasUsed": "0x44a7f",
      "effectiveGasPrice": "0x5d21dba01",
      "from": "0x7abedc832254daa2032505e33a8dd325841d6f2d",
      "to": "0x4515aec1be9b3920febb8083b26ee41dcc5f1e71",
      "contractAddress": null
    },
    {
      "status": "0x1",
      "cumulativeGasUsed": "0x44a7f",
      "logs": [
        {
          "address": "0x980c1f069ad090b18219e9411d72558a294a32cd",
          "topics": [
            "0xddf252ad1be2c89b69c2b068fc378daa952ba7f163c4a11628f55a4df523b3ef",
            "0x0000000000000000000000007abedc832254daa2032505e33a8dd325841d6f2d",
            "0x0000000000000000000000004515aec1be9b3920febb8083b26ee41dcc5f1e71"
          ],
          "data": "0x000000000000000000000000000000000000000000000000000000001dcd6500",
          "blockHash": "0x4f9b831be4684b17d95116377e1fcf1c9bc8d0400eaac709ac195b652fb17807",
          "blockNumber": "0xbbb1750",
          "transactionHash": "0x4df03f6920acce8fec05bdd8c6a69368dd52d96f0ee08d5506c5a2caf81167c9",
          "transactionIndex": "0x0",
          "logIndex": "0x0",
          "removed": false
        },
        {
          "address": "0xead455896b2584a7738b85c3c984ceebf910f766",
          "topics": [
            "0x6a448d71fd65dbbbba6f99eb68402f18062b2c12113f2c7b6569230fa1f8a2bf",
            "0x767b5673fec867a72c5746cbbd0607760245cc88df093d05b325fbf375f23827",
            "0x0000000000000000000000004515aec1be9b3920febb8083b26ee41dcc5f1e71"
          ],
          "data": "0x000000000000000000000000000000000000000000000000000000000000000000000000000000000000000000000000000000000000000000000000000001000000000000000000000000000000000000000000000000000000000000000000000000000000000000000000000000000000000000000000000000000000000000000000000000000000000000000000000000000000000000000000000000000000000000000000000000000000000000000000000000000000000000000000f02cabd416788339273a073214663b7deba8ed7cb6036fe308d8602c342b3d250000000000000000000000000000000000000000000000000000000068cfca98000000000000000000000000000000000000000000000000000000000000005644696420666c69676874204b413131382066726f6d2049434e20746f20534541207363686564756c6564206174203137363431353036333020617272697665206c61746572207468616e203630206d696e757465733f00000000000000000000",
          "blockHash": "0x4f9b831be4684b17d95116377e1fcf1c9bc8d0400eaac709ac195b652fb17807",
          "blockNumber": "0xbbb1750",
          "transactionHash": "0x4df03f6920acce8fec05bdd8c6a69368dd52d96f0ee08d5506c5a2caf81167c9",
          "transactionIndex": "0x0",
          "logIndex": "0x1",
          "removed": false
        },
        {
          "address": "0x4515aec1be9b3920febb8083b26ee41dcc5f1e71",
          "topics": [
            "0x14c77a4940f0fd33a03d9d1bc70b9654df868a589f3727f7b905837e4e63a754",
            "0x0000000000000000000000000000000000000000000000000000000000000012",
            "0x0000000000000000000000007abedc832254daa2032505e33a8dd325841d6f2d"
          ],
          "data": "0x000000000000000000000000000000000000000000000000000000001dcd65000000000000000000000000000000000000000000000000000000000001312d000000000000000000000000000000000000000000000000000000000000000005767b5673fec867a72c5746cbbd0607760245cc88df093d05b325fbf375f23827000000000000000000000000000000000000000000000000000000000000014000000000000000000000000000000000000000000000000000000000000001c000000000000000000000000000000000000000000000000000000000000002000000000000000000000000000000000000000000000000000000000000000240000000000000000000000000000000000000000000000000000000006926cd66000000000000000000000000000000000000000000000000000000000000003c000000000000000000000000000000000000000000000000000000000000005644696420666c69676874204b413131382066726f6d2049434e20746f20534541207363686564756c6564206174203137363431353036333020617272697665206c61746572207468616e203630206d696e757465733f0000000000000000000000000000000000000000000000000000000000000000000000000000000000054b41313138000000000000000000000000000000000000000000000000000000000000000000000000000000000000000000000000000000000000000000000349434e000000000000000000000000000000000000000000000000000000000000000000000000000000000000000000000000000000000000000000000000035345410000000000000000000000000000000000000000000000000000000000",
          "blockHash": "0x4f9b831be4684b17d95116377e1fcf1c9bc8d0400eaac709ac195b652fb17807",
          "blockNumber": "0xbbb1750",
          "transactionHash": "0x4df03f6920acce8fec05bdd8c6a69368dd52d96f0ee08d5506c5a2caf81167c9",
          "transactionIndex": "0x0",
          "logIndex": "0x2",
          "removed": false
        }
      ],
      "logsBloom": "0x00000000001008000000000000000000000100000000000000000000000000100000000000000000000000000000004000000000000000000100000000000000000000000000000000000008000000000004000000000002080000000000000000000000000000000000000000000000000004000000800004000010000008000001000000000000000000000000040000000000000000000080000000000000000000000000000000000000000001000000000000000040000000040002000000004002001000000400000000000000000000000000000000800000000000000000000000000000000000000000000000004000000100000000800000000000",
      "type": "0x2",
      "transactionHash": "0x4df03f6920acce8fec05bdd8c6a69368dd52d96f0ee08d5506c5a2caf81167c9",
      "transactionIndex": "0x0",
      "blockHash": "0x4f9b831be4684b17d95116377e1fcf1c9bc8d0400eaac709ac195b652fb17807",
      "blockNumber": "0xbbb1750",
      "gasUsed": "0x44a7f",
      "effectiveGasPrice": "0x5d21dba01",
      "from": "0x7abedc832254daa2032505e33a8dd325841d6f2d",
      "to": "0x4515aec1be9b3920febb8083b26ee41dcc5f1e71",
      "contractAddress": null
    },
    {
      "status": "0x1",
      "cumulativeGasUsed": "0x44a7f",
      "logs": [
        {
          "address": "0x980c1f069ad090b18219e9411d72558a294a32cd",
          "topics": [
            "0xddf252ad1be2c89b69c2b068fc378daa952ba7f163c4a11628f55a4df523b3ef",
            "0x0000000000000000000000007abedc832254daa2032505e33a8dd325841d6f2d",
            "0x0000000000000000000000004515aec1be9b3920febb8083b26ee41dcc5f1e71"
          ],
          "data": "0x000000000000000000000000000000000000000000000000000000001dcd6500",
          "blockHash": "0x704491405a966c479fc1fbe481884ee63ae1ff7dd443f4d599b07921f76ada9c",
          "blockNumber": "0xbbb1752",
          "transactionHash": "0x74b0d8d24de2da0179d72a2091a0bcda8faa0925a4a36b8d0acaf3a01575a1a6",
          "transactionIndex": "0x0",
          "logIndex": "0x0",
          "removed": false
        },
        {
          "address": "0xead455896b2584a7738b85c3c984ceebf910f766",
          "topics": [
            "0x6a448d71fd65dbbbba6f99eb68402f18062b2c12113f2c7b6569230fa1f8a2bf",
            "0xa3fd53a0db8fad942c4b00f142602d60351709b9b3ec5d9deaaaf46a76205deb",
            "0x0000000000000000000000004515aec1be9b3920febb8083b26ee41dcc5f1e71"
          ],
          "data": "0x000000000000000000000000000000000000000000000000000000000000000000000000000000000000000000000000000000000000000000000000000001000000000000000000000000000000000000000000000000000000000000000000000000000000000000000000000000000000000000000000000000000000000000000000000000000000000000000000000000000000000000000000000000000000000000000000000000000000000000000000000000000000000000000000fbe54d44690ff22c4bafdd3b1987cb94877f321b06d26da64713db8ae447b9550000000000000000000000000000000000000000000000000000000068cfca9a000000000000000000000000000000000000000000000000000000000000005644696420666c69676874204b413131392066726f6d2049434e20746f20595652207363686564756c6564206174203137363434393632333020617272697665206c61746572207468616e203435206d696e757465733f00000000000000000000",
          "blockHash": "0x704491405a966c479fc1fbe481884ee63ae1ff7dd443f4d599b07921f76ada9c",
          "blockNumber": "0xbbb1752",
          "transactionHash": "0x74b0d8d24de2da0179d72a2091a0bcda8faa0925a4a36b8d0acaf3a01575a1a6",
          "transactionIndex": "0x0",
          "logIndex": "0x1",
          "removed": false
        },
        {
          "address": "0x4515aec1be9b3920febb8083b26ee41dcc5f1e71",
          "topics": [
            "0x14c77a4940f0fd33a03d9d1bc70b9654df868a589f3727f7b905837e4e63a754",
            "0x0000000000000000000000000000000000000000000000000000000000000013",
            "0x0000000000000000000000007abedc832254daa2032505e33a8dd325841d6f2d"
          ],
          "data": "0x000000000000000000000000000000000000000000000000000000001dcd65000000000000000000000000000000000000000000000000000000000001312d000000000000000000000000000000000000000000000000000000000000000005a3fd53a0db8fad942c4b00f142602d60351709b9b3ec5d9deaaaf46a76205deb000000000000000000000000000000000000000000000000000000000000014000000000000000000000000000000000000000000000000000000000000001c00000000000000000000000000000000000000000000000000000000000000200000000000000000000000000000000000000000000000000000000000000024000000000000000000000000000000000000000000000000000000000692c1366000000000000000000000000000000000000000000000000000000000000002d000000000000000000000000000000000000000000000000000000000000005644696420666c69676874204b413131392066726f6d2049434e20746f20595652207363686564756c6564206174203137363434393632333020617272697665206c61746572207468616e203435206d696e757465733f0000000000000000000000000000000000000000000000000000000000000000000000000000000000054b41313139000000000000000000000000000000000000000000000000000000000000000000000000000000000000000000000000000000000000000000000349434e000000000000000000000000000000000000000000000000000000000000000000000000000000000000000000000000000000000000000000000000035956520000000000000000000000000000000000000000000000000000000000",
          "blockHash": "0x704491405a966c479fc1fbe481884ee63ae1ff7dd443f4d599b07921f76ada9c",
          "blockNumber": "0xbbb1752",
          "transactionHash": "0x74b0d8d24de2da0179d72a2091a0bcda8faa0925a4a36b8d0acaf3a01575a1a6",
          "transactionIndex": "0x0",
          "logIndex": "0x2",
          "removed": false
        }
      ],
      "logsBloom": "0x20000000001008000000000000800000000100000000000000000000000000100000000040000000000000000000004000000000000000000000000000000000000000200000000000000008000400000004000000000002080000000000000000000000000000000000000000000000000004000000800004000010000008000001000000000000000000000000000000000000000000000080000000000000000000000000000000000000000001000000000000000000000000040002000000004002001000000000000000000000000000000000000004800000000000000000000000000000000000000000000000004000000000000000000000000000",
      "type": "0x2",
      "transactionHash": "0x74b0d8d24de2da0179d72a2091a0bcda8faa0925a4a36b8d0acaf3a01575a1a6",
      "transactionIndex": "0x0",
      "blockHash": "0x704491405a966c479fc1fbe481884ee63ae1ff7dd443f4d599b07921f76ada9c",
      "blockNumber": "0xbbb1752",
      "gasUsed": "0x44a7f",
      "effectiveGasPrice": "0x5d21dba01",
      "from": "0x7abedc832254daa2032505e33a8dd325841d6f2d",
      "to": "0x4515aec1be9b3920febb8083b26ee41dcc5f1e71",
      "contractAddress": null
    },
    {
      "status": "0x1",
      "cumulativeGasUsed": "0x437bf",
      "logs": [
        {
          "address": "0x980c1f069ad090b18219e9411d72558a294a32cd",
          "topics": [
            "0xddf252ad1be2c89b69c2b068fc378daa952ba7f163c4a11628f55a4df523b3ef",
            "0x0000000000000000000000007abedc832254daa2032505e33a8dd325841d6f2d",
            "0x0000000000000000000000004515aec1be9b3920febb8083b26ee41dcc5f1e71"
          ],
          "data": "0x000000000000000000000000000000000000000000000000000000001dcd6500",
          "blockHash": "0xe76d9202ae9786224077c2cb73520dcd43d59bc633cb61bb14c904b49cdd9534",
          "blockNumber": "0xbbb1754",
          "transactionHash": "0x2ba07e856d007d3d3880bc63f5e511b91f0b0b539169f26e17092f5da0f146af",
          "transactionIndex": "0x0",
          "logIndex": "0x0",
          "removed": false
        },
        {
          "address": "0xead455896b2584a7738b85c3c984ceebf910f766",
          "topics": [
            "0x6a448d71fd65dbbbba6f99eb68402f18062b2c12113f2c7b6569230fa1f8a2bf",
            "0xeba26a0582a5c1035e00bd7cade890dc5d900bc41353db618488177c94a41c4e",
            "0x0000000000000000000000004515aec1be9b3920febb8083b26ee41dcc5f1e71"
          ],
          "data": "0x000000000000000000000000000000000000000000000000000000000000000000000000000000000000000000000000000000000000000000000000000001000000000000000000000000000000000000000000000000000000000000000000000000000000000000000000000000000000000000000000000000000000000000000000000000000000000000000000000000000000000000000000000000000000000000000000000000000000000000000000000000000000000000000000f4f5a6f562064ef9ad30e8a7557b29497c34cb4b92350b37ccd80ea75a8f54d30000000000000000000000000000000000000000000000000000000068cfca9c000000000000000000000000000000000000000000000000000000000000005644696420666c69676874204b413132302066726f6d2049434e20746f20535a58207363686564756c6564206174203137363438343138333020617272697665206c61746572207468616e203330206d696e757465733f00000000000000000000",
          "blockHash": "0xe76d9202ae9786224077c2cb73520dcd43d59bc633cb61bb14c904b49cdd9534",
          "blockNumber": "0xbbb1754",
          "transactionHash": "0x2ba07e856d007d3d3880bc63f5e511b91f0b0b539169f26e17092f5da0f146af",
          "transactionIndex": "0x0",
          "logIndex": "0x1",
          "removed": false
        },
        {
          "address": "0x4515aec1be9b3920febb8083b26ee41dcc5f1e71",
          "topics": [
            "0x14c77a4940f0fd33a03d9d1bc70b9654df868a589f3727f7b905837e4e63a754",
            "0x0000000000000000000000000000000000000000000000000000000000000014",
            "0x0000000000000000000000007abedc832254daa2032505e33a8dd325841d6f2d"
          ],
          "data": "0x000000000000000000000000000000000000000000000000000000001dcd65000000000000000000000000000000000000000000000000000000000001312d000000000000000000000000000000000000000000000000000000000000000005eba26a0582a5c1035e00bd7cade890dc5d900bc41353db618488177c94a41c4e000000000000000000000000000000000000000000000000000000000000014000000000000000000000000000000000000000000000000000000000000001c0000000000000000000000000000000000000000000000000000000000000020000000000000000000000000000000000000000000000000000000000000002400000000000000000000000000000000000000000000000000000000069315966000000000000000000000000000000000000000000000000000000000000001e000000000000000000000000000000000000000000000000000000000000005644696420666c69676874204b413132302066726f6d2049434e20746f20535a58207363686564756c6564206174203137363438343138333020617272697665206c61746572207468616e203330206d696e757465733f0000000000000000000000000000000000000000000000000000000000000000000000000000000000054b41313230000000000000000000000000000000000000000000000000000000000000000000000000000000000000000000000000000000000000000000000349434e00000000000000000000000000000000000000000000000000000000000000000000000000000000000000000000000000000000000000000000000003535a580000000000000000000000000000000000000000000000000000000000",
          "blockHash": "0xe76d9202ae9786224077c2cb73520dcd43d59bc633cb61bb14c904b49cdd9534",
          "blockNumber": "0xbbb1754",
          "transactionHash": "0x2ba07e856d007d3d3880bc63f5e511b91f0b0b539169f26e17092f5da0f146af",
          "transactionIndex": "0x0",
          "logIndex": "0x2",
          "removed": false
        }
      ],
      "logsBloom": "0x00000000001008000000000000000001000100000000000000000000000000100000000000000000000000000000004000002000000800000000000000000000000000000000000000000008000000000004000000000002080000000000000000000000000000000000000000000000000004000000800004000010000008000001000000000000000000000000000000000000000400000080000000000000000000000000000020000000000001000000000000000000000000040102000000004002001000000000000000000000000000000000000000800000000000000000000000000000000000000000000000004000000000000000000000000000",
      "type": "0x2",
      "transactionHash": "0x2ba07e856d007d3d3880bc63f5e511b91f0b0b539169f26e17092f5da0f146af",
      "transactionIndex": "0x0",
      "blockHash": "0xe76d9202ae9786224077c2cb73520dcd43d59bc633cb61bb14c904b49cdd9534",
      "blockNumber": "0xbbb1754",
      "gasUsed": "0x437bf",
      "effectiveGasPrice": "0x5d21dba01",
      "from": "0x7abedc832254daa2032505e33a8dd325841d6f2d",
      "to": "0x4515aec1be9b3920febb8083b26ee41dcc5f1e71",
      "contractAddress": null
    }
  ],
  "libraries": [],
  "pending": [],
  "returns": {},
  "timestamp": 1758448284800,
  "chain": 1001,
  "commit": "c611dbe"
}